:400000000080002011000000150800001508000008B5044B1A6803F53F5302331A6000F001FC00BFFA46004010B5054C237833B9044B13B10448AFF300800123237010BD40
:40004000B882FF1F00000000B01E0000084B10B51BB108490848AFF300800848036803B910BD074B002BFBD0BDE81040184700BF00000000BC82FF1FB01E0000C880FF1F84
:400080000000000008B5002000F006FF08BD00BF684620F007018D4619B572B6EFF311841E4B1B68DBB20F2B10D9103B23F0030202F1604202F564421168DB0003F0180351
:4000C000E0229A400A4022FA03F306E00F2B03D1134B1B681B0E00E0002383F31188114A136801331360012B01D101F0EBFC62B6FFF7C8FF72B684F3118801F0C7F8094A55
:400100001368013B13601BB901F0E5FC01F0A9FC62B6BDE819408546704700BF04ED00E020ED00E04083FF1F08B562B645F6BF52054B1A60054A136843F0020313600020E3
:4001400001F092F9FBE700BF14E000E010E000E008B500F03FF901F02DFC00F061F901F0E7F9094A136843F00503136001221146002000F013FD042000F09CFC012000F0D1
:4001800099FC01F0B7F908BD10E000E008B5022000F090FC0421022000F024FF032000F089FC08BD00BFFDE738B5154B1B7813B94FF0010101E04FF00001124B9A681970C9
:4001C00000215960022159705569936873B13DB90CE0996855F8240000F004FF013400E00024084B9B681A699442F2D3054B5B78022B03D1034883685B68984738BD00BFB8
:40020000D880FF1FF080FF1F174B9B78022B29D130B583B0144B1B88ADF80430ADF800305BB2002B02DC4FF0000300E05B000F4A9168137000235360022353704D698B6887
:4002400073B13DB90CE0996855F8240000F0CAFE013400E00024054B9B681A699442F2D303B030BD704700BFCC80FF1FD880FF1F38B5184B5B78022B08D1164B19785B68D0
:40028000B3F57A7F04D34FF0000101E04FF00001114B9A68197000215960022159705569936873B13DB90CE0996855F8240000F099FE013400E00024074B9B681A69944219
:4002C000F2D3054B5B78022B03D1034883685B68984738BDD880FF1FE480FF1F224B9B681A68002A3FD030B583B01F4A128802A820F8082D1B689847E8B9BDF80010ADF8A6
:400300000410194B9A6819800021596002219970556993682BB33DB923E0996855F8240000F060FE013400E000240F4B9B681A699442F2D315E00C4B03229A709B68DD69DC
:40034000DB6873B13DB90CE0D96855F8240000F049FE013400E00024034B9B689A699442F2D303B030BD7047CC80FF1F10B5084C22680221074800F061F8236801332360C2
:4003800013F5807F01D90022226001F0B3F810BDD482FF1FB41E000008B5012000F090F801F0A8F808BD00BF00B583B000230193032000F097FE01A9042000F0F3FD019810
:4003C00000F0C2FD019A0221014800F04FF8EFE7C81E000008B501F03FF901F051F9002008BD00BF70B506460D46002001F04CF9002001F055F984B2012001F051F980B252
:40040000D4F5006400D50F3444F307143470D0F5006000D50F3040F307102870002070BD08B501F07DFA002001F05AFA002008BD08B501F055FA002008BD00BFF8B5064610
:400440000F46154600240DE006EBC4039A88B5FBF2F302FB13531BB956F83430002098470134A4B2BC42EFD30020F8BDF8B505460E461746002409E005EBC403586838429D
:4004800002D055F8343098470134A4B2B442F3D30020F8BD08B5007801F050FA002008BD10B50446FFF7BCFF2078FFF7C1FF002010BD00BF08B5411CFFF794FF002008BD27
:4004C00030B5E5B004461B4B5B68034413F1011F01D8184A5360184801F086FA154D0A226946286901F093FC684601F07DFA2B69234413F1011F00D82B610F4801F074FA48
:400500000C4D0A2232A9286901F081FC32A801F06BFAEB69234413F1011F00D8EB61054B9B6A1C4414F1011F01D8024B9C6265B030BD00BFCC80FF1F841F0000FEE700BFB9
:40054000F0B40022174611E050F82760F3B226F0FF0608E001EB420511F812406D78A5550132013BDBB2002BF4D10137222FEBD9F0BC704708B50A46002101F055FC08BDB2
:4005800038B50E22284B1A801823284A13701925023215800232137040F2CF7102321180023213700222224B1A7008224FF040231A70032103F5007319701E4B1B78DBB223
:4005C0001D490B701D4B1A8041F25122023B1A8000240CE01A4B1B7803F0010343EA440404F003044FF4F07001F01EFA013D0DB1032CEFD115B90320FFF7A0FF114B4FF470
:4006000080721A8007221A7000220F490A704820023108701A700222033B1A700B4A137843F00703137038BD80400040824000400043004008010049A146004022420040C7
:40064000254200400440004006400040A2430040F8B5164B1B78DBB2154E3478E4B2154F3D78EDB203F00701134A11701B090132137044F00303337045F003033B7003227E
:400680000E4B1A7040230E4A13700232137030220C4B1A70202203331A700A2000F000FA3D7034704422084B1A70F8BDCF010049F8460040F94600406E5800400D51004016
:4006C00001590040205B00407658004008B501F0A0FB08BD38B572B63A4A137843F00403137000240CE0384D630019194A0011462A44084691882858FFF73CFF0134E4B28C
:40070000072CF0D900240BE02F48A20011194B0003441A8F596B186BFFF7D8FF0134E4B2012CF1D929494FF09040FFF709FF04212748FFF71FFF042226492748FFF7C6FF74
:40074000264A137843F0020313701032137843F002031370224C237843F040032370A2F58632513A137843F01003137008221D491D48FFF7ABFF0A221C491D48FFF7A6FFD5
:4007800008221C491C48FFF7A1FF08221B491C48FFF79CFF1B4A137843F0080313701A4D61232B70FFF7ECFE81232B700122174B1A70FFF74DFF0E2221461548FFF786FF17
:4007C00038BD00BFE8460040881F00008C00004800760040FC0700480876004003500140A0430040D807004802510040E0070048C0510040EC07004812510040F40700488B
:4008000022510040224300400048004004000840B043004008B501F0B7FA03680C2B00D1FEE7FEE708B5104E104D16E029686B68AC68002204E051F8040B43F8040B0432F9
:40084000A242F8D1E868002203E0002143F8041B04328242F9D11035013E002EE6D101F099FAFFF761FCFEE7010000006C22000008B5114A114B1A60114A136843F4007315
:40088000136000230AE0032B03D80E4A52F8231000E00D490D4A42F8231001332F2BF2D90B4B1A780B4B1A70084A0B4B1A60FFF711FF00F013F808BD0004FA050CED00E0FB
:4008C00014ED00E000000000150800000080FF1FBC760040C080FF1F08ED00E00B4A7F2313708021517007E0DA0002F1804202F5F042013BDBB21370002BF5D1DB0003F130
:40090000804303F5F04300221A707047FC80FF1F172815D831B103010A495A5C42F020025A5405E0030107495A5C02F0DF025A540001044A835C43F001038354002070472C
:40094000012070471070004017280CD80001074BC1180A7942F004020A71C25C42F00102C254002070470120704700BF1070004017280BD80001064A835C03F0F103490041
:4009800001F00E011943815400207047012070471070004041F6FF73994201D14FF4005141F6FF739A4201D14FF40052172808D8C00000F1804000F5EC408180C2800020AD
:4009C00070470120704700BF172805D8034B03EB0010417200207047012070471070004017281BD810B4C00000F1804404F5EC44D201D2B201F07F01114321709DF8042025
:400A00001201D2B203F00F03134363709DF8083003F00F03A3700020E07001E00120704710BC704710B501F007F80A4B5B78182B0BD9084A1478013B5370E30003F18043E5
:400A400003F5F0431B78137000E0FF2400F0F8FF204610BDFC80FF1F10F0800F0CD111F4704F0BD1C00000F1804000F5F04001808270C370002070470120704701207047AF
:400A800010F0800F08D1C00000F1804000F5F0408180C280002070470120704701BE704708B5034B1B7A00FB03F000F0BDFF08BD0481FF1F38B5EFF3108572B604284ED850
:400AC0002D4B53F82030002B4BD02B4A013B42F820302A4B53F82030032B07D10222274B43F820200022264B43F8202000F03EFC244B1B68002B36D1234B1C6800F014FCED
:400B0000B0F1FF3F31D0214B53F82020204B1B689A422CD9B4F1FF3F03D00221174A42F824101C4A52F820201343194A13600022124B43F8202000F0B3FB174B53F82030B6
:400B40004BB10024144B43F8204040F0004000F0CBFF20460CE000F0C7FF002008E0032006E0042004E0002002E0002000E0002085F3108838BD00BF5C81FF1F0882FF1F87
:400B80000083FF1F4083FF1FF081FF1F542100001C83FF1F34210000D882FF1FF8B5EFF3108472B628BB00EB4005AB00184DEB5803EB4306B500174E75598D421BD34AB19D
:400BC00003EB43039E00134B1E44B3689A4214D3954214D3A9B103010F4DEB589BB90301EE180127EF507260013900F087F800200AE0032008E0082006E0082004E0082033
:400C000002E0082000E0072084F31088F8BD00BFEC200000002100007083FF1F18B108B5C368984708BD704708B508B1406800E00020042816D80C4B53F8203093B10A4A14
:400C4000013B42F82030094B53F82030032B07D10222064B43F820200022054B43F8202000F084FB08BD00BF5C81FF1F0882FF1F0083FF1F18B1034640689B6801E00023E4
:400C8000184604281DD80F4A52F82020CAB10E4A52F82010032914D010B50C4C54F820201A4344F820200A4A52F82020134207D0012905D10222044B43F8202000F056FBBA
:400CC00010BD70470C2100000882FF1F0083FF1FEC82FF1F80B108B50378012B06D013B1032B06D008BDFFF79FFF08BDFFF7C2FF08BDFFF793FF08BD704700BF30B400EB0F
:400D000040029300214AD258214B03EBC2035C68B4F1FF3F04D11E4B03EBC20250602DE01C4B03EB04139B6899420AD2184D05EBC2025060174A02EB04125B1A93601DE01E
:400D40001C46144B03EB04139A68891ADB68B3F1FF3F05D00F4A02EB031292689142EFD2B3F1FF3F05D00B4A02EB031295686D1A9560084A02EB0414E0601C46054B03EB67
:400D800000108160C46030BC704700BFEC2000001881FF1F7083FF1F38B5394A02EBC0035C6852F83030013342F8303000EB40018A0034498A58934203D90022304B43F8EE
:400DC0003020B4F1FF3F59D02F4B03EB04139B68002B4ED1214600E019462B4B03EB0113DB68B3F1FF3F05D0274A02EB03129268002AF1D0244A02EB01114FF0FF32CA6054
:400E00001F4A02EBC0004360B3F1FF3F07D01E4A02EB03139A68013A9A6000E02C4604EB44029300194A13441B7A7BB904EB44029300164A13445A68154B53F8223003EBD5
:400E400083039A0013481044FFF744FF0E4B03EB0413DD68596821B101392046FFF74EFF03E024010022084B1A51B5F1FF3FD5D138BD054A02EB0414013BA36038BD00BFA3
:400E80001881FF1F002100007083FF1FEC200000FC200000D820000038B5EFF3108572B6002838D1FFF778FF204B1B68002B34D11F4B1C6800F038FAB0F1FF3F2FD01D4B8B
:400EC00053F820201C4B1B689A422AD9B4F1FF3F03D00221194A42F82410194A52F820201343154A13600022144B43F8202000F0D7F9144B53F820304BB10024114B43F872
:400F0000204040F0004000F0EFFD20460AE000F0EBFD002006E0032004E0002002E0002000E0002085F3108838BD00BF4083FF1FF081FF1F542100001C83FF1F0882FF1FA0
:400F400034210000D882FF1FEFF3108372B6114A1168114A126882B9B1F1FF3F0FD00F4A52F821206AB110B40D4C54F8212022EA000044F82100002007E0022002E0022025
:400F800000E0012083F31088704783F3108810BC704700BFF081FF1F4083FF1F0C2100000083FF1F04280FD80B4B53F820306BB10A4B53F82030032B0AD059B1084B53F81D
:400FC00020300B60002070470320704701207047072070470E2070470C2100000882FF1F0083FF1F38B5EFF3108472B6042853D8324B53F82030002B50D0314B53F8203018
:40100000032B4DD02F4D55F820200A4345F820202D4A52F82020114244D0012B44D10222274B43F8202000F0A1F9284B1B68002B3CD1274B1D6800F077F9B0F1FF3F37D0E3
:40104000244B53F82020244B1B689A4232D9B5F1FF3F03D002211A4A42F825101F4A52F8202013431C4A13600022154B43F8202000F016F91A4B53F820304BB10025184B4E
:4010800043F8205040F0004000F02EFD284612E000F02AFD00200EE003200CE001200AE0072008E0002006E0002004E0002002E0002000E0002084F3108838BD0C210000EF
:4010C0000882FF1F0083FF1FEC82FF1F4083FF1FF081FF1F542100001C83FF1F34210000D882FF1F38B5EFF3108472B6364B1D68364B1B68002B5DD1B5F1FF3F5CD0344B2F
:4011000053F82530002B59D0324B53F82530034256D1314B43F825000122304B43F825202F4B53F825002F490B6823EA00030B602D4B43F825202D4B53F82520224B1A6001
:4011400000F0F2F8B0F1FF3F06D0294B53F82020244B1B689A420DD81B4B1868B0F1FF3F03D000221D4B43F8202040F0004000F0BBFC1AE00021194A42F82010184A52F8E6
:4011800020201343174A136000F08AF8164B53F8203043B10022144B43F8202040F0004000F0A2FC01E000F09FFC00200A4B43F8250006E0022004E0022002E0012000E037
:4011C000002084F3108838BDF081FF1F4083FF1F0C2100000083FF1FEC82FF1F0882FF1F342100001C83FF1FD882FF1FF481FF1F5421000008B500F053F8084B53F82030E1
:4012000043B10022054B43F8202040F00040044B186008BD024B186008BD00BFD882FF1F4483FF1F10B500F07FF8124B1B68B0F1FF3F1AD0104A52F82010104A12689142DB
:4012400013D9B3F1FF3F03D002240D4941F8234000210B4B43F820100A4B53F820301A43064B1A60FFF7C6FF10BD43F00043064A136010BDF081FF1F542100001C83FF1F6C
:401280000882FF1F342100004483FF1F034B1B6813B10022014B1A60704700BF3483FF1FF0B4184B19880B0A174AD356B3F1FF3F01D1535601E008335BB2144D55F82320C6
:4012C000134850F82200134E56F8224045F82340114D2F6846F822702A60B4F1FF3F09D10E4A42F82340012202FA03F321EA0301044B19800A4B19680A4A42F8201018605F
:40130000F0BC70471883FF1FCC1F0000B081FF1F4883FF1F3481FF1F1483FF1F7081FF1FF081FF1FF481FF1F0C4B1A88130A0C49CB56B3F1FF3F01D18B5601E008335BB26B
:40134000B3F1FF3F06D0074A52F82320064B53F8220070474FF0FF30704700BF1883FF1FCC1F0000B081FF1F4883FF1F30B4144B53F82020134C2368134951F8235025604D
:40138000124C44F823004FF0FF3441F82340104951F82210A1420AD10E4951F820400E480188214301800D4941F8223002E0064840F82130064941F8223030BC704700BF36
:4013C0004881FF1F1483FF1F3481FF1F4883FF1F7081FF1F542100001883FF1FB081FF1F10B150F8210070474FF0FF30704700BF0122014B1A60FEE73C83FF1F70B5054629
:40140000124B53F8306000241CE0104B03EBC50321465868FFF7E4FF0D4A52F82030013B42F820300B4B53F82030032B07D10222084B43F820200022074B43F82020FFF7BE
:4014400095FF0134B442E0D370BD00BFCC2000005C81FF1F0882FF1F0083FF1F18B908B5FFF7CCFF08BD7047194B1A4ADA621A4A9A631A4ADA63EFF3108272B6184B1B688B
:4014800013BB10B5044600F053F8164B1C600122134B1A602046FFF7E1FFFFF745FFB0F1FF3F0ED0104B53F82030104A11680B43136000220E4B43F82020FFF7F1FE00F0B4
:4014C00013FB62B6FFF794FF82F31088072070470080FF1FA91A00006D1A0000910000003C83FF1F508BFF1F342100001C83FF1F0882FF1F08B5EFF3108272B6094B19681B
:40150000094B1B6833B94FF0FF30084B43F82100002000E0022010B9084600F03EFB82F3108808BDF081FF1F4083FF1F2081FF1F10B5EFF3108472B600F086FA034A1368CD
:4015400043F07F43136084F3108810BD20ED00E010B541F6FF734FF480420121022000F061F9084C207041F6FF731A460121042000F076F96070044800F090F9002000F002
:4015800093F910BD2483FF1FBD16000070B52C4C2078FFF7D9F96078FFF7D6F9294B1B78FF2B03D1FFF73EFA264B1870254D2878062302460421FFF74FFA214E341DA4B277
:4015C000224645F6A0312878FFF75AFA29783078FFF7FAF96B78FF2B02D1FFF723FA6870184D6878072302460421FFF735FA164A92B221466878FFF743FA114C697860785B
:40160000FFF7E2F901212078FFF782F901216078FFF77EF900F010FA0C4A137843F02003137000F00DFA0A4B1A7842F001021A701A7842F002021A700122064B1A6070BD89
:401640002483FF1F4882FF1F548DFF1F976500407A65004080E200E008B5074B9B6823B9FFF776FF0122044B9A6000F0C5F8FFF78DFF024B1B7808BD2483FF1F69650040B5
:4016800008B500F0C7F808BD044B1B7803F0FF020BB90028F8D01046704700BF69650040C0F10100034B33F91030034A1088181A00B27047548DFF1F5A8DFF1F704700BF2F
:4016C00008B50A280FD00C2802D0082806D102E04FF4805209E04FF4807206E00020FFF7DDF9002201E04FF480620021094B198042F2107303FB02F303F6C413064A82FBAB
:401700000302DB17C3EBE223044A1360044B198008BD00BF588DFF1FAD8BDB68608DFF1F5A8DFF1F10B500F087F90446184A137843F0010313701032137843F00103137097
:4017400002F5AA520832137843F0030313701822104B1A70013B1A7842F040021A701A7802F0FC021A70C822053B1A700222A3F597530C3B1A70084A137843F00803137035
:401780000A20FFF78DF9204600F05AF910BD00BFAB43004006590040275B004010B504460A280DD00C2802D0082804D101E0C22207E0422205E00020FFF770F9C22200E05E
:4017C0008222034B1A702046FFF77AFF10BD00BF0259004008B5064A137843F0060313700C20FFF7DBFF0022024B1A8008BD00BF015900405C8DFF1F08B5054B1B7823B974
:40180000FFF7E8FF0122024B1A70FFF78BFF08BD3083FF1F024A137843F001031370704700590040F0B583B016461F460B4C012525700023019300932B460A46014628466F
:40184000FFF7CEF83A4631462078FFF7A3F802212078FFF78DF8207803B0F0BD4A82FF1FF0B583B016461F460B4D00242C700194009423460A4601462046FFF7B1F83A4615
:4018800031462878FFF786F802212878FFF770F8287803B0F0BD00BF4B82FF1F014B1B681864704708ED00E04001C0B2014B1870704700BF00E400E0024A137843F08003AD
:4018C000137070477E640040014B1870704700BF0E640040014B1870704700BF4E640040014B1870704700BF2E64004008B50B4A137803F0C00343F0090313702032137846
:4019000043F001031370FF20FFF7DEFFFF20FFF7E1FF7F20FFF7E4FF08BD00BF7E64004008B5054B1B7823B9FFF7E0FF0122024B1A70FFF7C1FF08BD3183FF1F044A137877
:4019400003F0BF03800100F04000184310707047005100407222084B1A702022A3F203131A7006225F3B1A70472210331A70002254331A70704700BF8B65004010B500F0E6
:401980005BF804460A4A137843F020031370A2F20312137843F0100313700532137843F01003137000F032F8204600F049F810BD9B65004008B5054B1B7823B9FFF7CAFF51
:4019C0000122024B1A70FFF7D9FF08BD3283FF1F034B1B7813F0040FFAD1024B187070476D6400404A64004038B5074B1B782BB938BDFFF7EDFF0134A4B201E005460024D2
:401A0000285D0028F5D138BD3283FF1F054A137843F0020313701032137843F002031370704700BFA24300400230800803D000BF01380046FCD17047EFF3108072B6704713
:401A400080F31088704700BF18484FF47F0102680A43026016486FF07F4102680A400260704714484FF080510160704772B611484FF000610160FFF7D5FB0F48006800F0E4
:401A8000C3F858B10C4800684FF080730B4A0C490FB40FB46FF00600004700BF6FF0060062B6004762B600DF08B0704720ED00E01CED00E004ED00E04483FF1FE91A000020
:401AC000A51A0000EFF30880054908600548006880F3088870470248006880F3088870474C82FF1F3C82FF1F411C8900154A11440968154A136899421AD0F0B444464D46F9
:401B000056465F46F0B400B5104C9B002344EFF308851D60116089002144096881F3088802BC8E46F0BCA046A946B246BB46F0BC002806DB00B500F05BF802BC8E46FFF7AC
:401B4000D3BF7047902100002083FF1F4082FF1FF0B444464D4656465F46F0B400B5EFF3038308B48000174901440968164A0244EFF30883136088471448804704BC4FF03E
:401B80008070024382F3038801BC8646F0BCA046A946B246BB46F0BC704780000A4901440A6882F3088804BC4FF08070024382F3038808BC9E46F0BCA046A946B246BB46A5
:401BC000F0BC7047682100005C83FF1FD11B000008B572B6014B1868FFF7DFFFF081FF1F08B5024B1868FFF7B3FF08BDF081FF1F08B562B6FFF7F4FF72B600F041F8014B1B
:401C0000186808BD4483FF1F00280BDA20F000400130054B53F82000044B1B68181A18BF0120704701207047902100002083FF1F054B53F82020054B53F820309A4201D1C0
:401C400001207047002070475C81FF1F2021000008B5FFF725FB084B53F8203043B10022054B43F8202040F00040044B186008BD024B186008BD00BFD882FF1F4483FF1F35
:401C800038B5364B1C680022354B1A60354A52F82430013342F82430334B53F824502046FFF7C6FF012801D0A54204D103222F4B43F8242003E002222C4B43F824202C4B91
:401CC00053F824102B4A136823EA010313602A4B53F82440214B1C60B5F1FF3F0FD0234B53F82530032B07D10222204B43F825200022224B43F825202846FFF737FBFFF764
:401D000013FBB0F1FF3F0BD1B4F1FF3F03D00022164B43F8242044F00044194B1C6038BD184B53F82020134B1B689A4208D800220E4B43F8242044F00044114B1C6038BD0B
:401D400000210A4A42F82010094A52F820201343084A1360FFF77CFF38BD00BFF081FF1F3483FF1F5C81FF1F2081FF1F0882FF1F342100001C83FF1FF481FF1F0083FF1F5B
:401D80004483FF1F54210000014B1868704700BFB082FF1F0E4B70B51E460E4C0025E41AA410A54204D056F8253098470135F8E700F04AFA084B094C1E46E41AA4100025BB
:401DC000A54204D056F8253098470135F8E770BD5422000054220000542200005C220000931E222B10B50C4602D90020087010BD0A2A06D1002804DA2D230B7040420121AF
:401E000000E00021214400F017F8204610BDFFF7E7BF10B5431E0A44914204D011F8014B03F8014FF8E710BD03460244934202D003F8011BFAE77047F0B58BB003460F46A4
:401E40006D461A4C04F1200E2E4620686168083403C674453546F7D1217920683171911E222930604FF0000001D938701CE07D1EB3FBF2F402FB14330AAE334413F8283C44
:401E8000411C05F8013F23460CB10846F0E77C543A18C11A8B4206DAF95C1478FC5402F801190133F5E738460BB0F0BD2222000000000000DD02000064000000710200005E
:401EC00064000000020000000902000001000000A9010000020000000200000000000000950400000000000000000000000000000000000000000000000000000000000029
:401F00000000000000000000A104000000000000000000000000000000000000000000000000000000000000000000000000000000000000020000000000000001000000F9
:401F4000541F00000000000000000000000000000000000004000000B504000000000000010000000000000001000000801F00000000000000000000000000000000000090
:401F8000040000000A000000305100404000F0510040100000000140001000140140000480180140800300400140000A004C0140000200500140200060520040500700481F
:401FC000060000180140580700488000FF00010102020202030303030303030304040404040404040404040404040404050505050505050505050505050505050505050596
:40200000050505050505050505050505060606060606060606060606060606060606060606060606060606060606060606060606060606060606060606060606060606062C
:4020400006060606060606060606060607070707070707070707070707070707070707070707070707070707070707070707070707070707070707070707070707070707AC
:402080000707070707070707070707070707070707070707070707070707070707070707070707070707070707070707070707070707070707070707070707070707070760
:4020C00007070707070707070707070701000000D4200000000000000300000000000000000000008D010000FFFFFFFF00000000000000000000000000000000000000000A
:4021000010270000000000000100000000000000000000000000000000000000010000000100000001000000010000000100000001000000800000000100000020000000C0
:402140000200000010000000010000000200000004000000010000000100000020000000020000001000000051010000A50100006D03000099030000A9030000E11B000066
:40218000E11B0000E11B0000E11B0000E11B0000000000000000000000000000000000000000000001000000616C726D5F63616C6C6261636B00000065765F6A6F79737483
:4021C00069636B5F6F6E44617461000065765F73706565645F6F6E446174610065765F316D73000074736B5F696E69740000000074736B5F6261636B67726F756E64000070
:4022000074736B5F696F000074736B5F73797374656D000074736B5F636F6E74726F6C004300303132333435363738396162636465666768696A6B6C6D6E6F70717273746B
:4022400075767778797A0000F8B500BFF8BC08BC9E4670474D00000071080000F8B500BFF8BC08BC9E4670472900000080220000C880FF1FF0010000B00A000000000000F1
:40228000000000000000000000000000581F000000000000000000002C1F00000000000000000000041F00000000000000000000DC1E00007F800000030000000000E02E2F
:4022C000C05D00001800000000366E01A821000000000000FFFFFFFFFFFFFFFFFFFFFFFFFFFFFFFFFFFFFFFFFFFFFFFF01000000020000000300000004000000FFFFFFFF4D
:4023000000000000000000000500000001000000040000000100000001000000010000000100000001000000FFFFFFFFFFFFFFFFFFFFFFFFFFFFFFFFFFFFFFFFFFFFFFFFA6
:40234000FFFFFFFFFFFFFFFFFFFFFFFFFFFFFFFFFFFFFFFFFFFFFFFFFFFFFFFFFFFFFFFFFFFFFFFFFFFFFFFFFFFFFFFFFFFFFFFFFFFFFFFFFFFFFFFFFFFFFFFFFFFFFFFF9D
:40238000FFFFFFFFFFFFFFFFFFFFFFFFFFFFFFFFFFFFFFFFFFFFFFFFFFFFFFFFFFFFFFFFFFFFFFFFFFFFFFFFFFFFFFFFFFFFFFFFFFFFFFFFFFFFFFFFFFFFFFFFFFFFFFFF5D
:4023C0000300000003000000030000000300000003000000B8210000CC210000DC210000E4210000F0210000002200000822000014220000548DFF1F00000000288BFF1FA3
:40240000FFFFFFFF0000000000000000000000000000000000000000000000000000000000000000000000002022000000000000000000000000000000000000000000005E
:40244000000000000000000000000000000000000000000000000000000000000000000000000000000000005082FF1F00000000000000000000000000000000000000006C
:40248000000000000000000000000000000000000000000000000000000000000000000000000000000000000000000000000000000000000000000000000000000000001C
:4024C00000000000000000000000000000000000000000000000000000000000000000000000000000000000000000000000000000000000000000000000000000000000DC
:40250000000000000000000000000000000000000000000000000000000000000000000000000000000000000000000000000000000000000000000000000000000000009B
:40254000000000000000000000000000000000000000000000000000000000000000000000000000000000000000000000000000000000000000000000000000000000005B
:020000040003F7
:0200000480007A
:4000000003520040015B0040026400400265004001050140340601402F0701402E08014049090140340A0140380B01401F0C0140350D01401E0E0140270F014006150140CD
:4000400013160140431701400518014045190140411A0140461B0140084001400741014007420140054301400245014006460140064701400848014001490140034C0140CC
:400080000B4D01400B50014002510140000101011110278488388D0F87018B7287200101040109011101140117011A011C0120012101250128012B012C01330134015804E8
:4000C00059045F0182048302850186088B018D808E108F40920293089520971099089A019C089D04A002A304A401A510A720A940AB80AC04AD02B1FFB21FB808BE04BF0172
:40010000D804D904DF0100400358050408010A230B250F1910041101121114041501160118201B0C1F2020402604280529452A012E012F183008320133503404350138026C
:4001400039413A183B143D013F1089018A018D059710A720B310C02FC2EFC4DFCAEFCCCFCEAFEE04020116012701300135013E015418580459045B045D105F0186068E0C9A
:40018000900C920296049E02A401AA0AB201B40EBA20BE04C006C704C9FFCA07CBFFCC40CD20CEF0CF05D008D608D804D904DA04DB04DC01DD91DF01E040E1A8E240E320C7
:4001C0000004030205010601071809880B400E010F2011041208148015401608180419281A081F012620270828802C822F203082322034803708394A3B803C203D403E185D
:400200004910500451885A805C016002670A881489058A098C828D088E01910493C09408961999109C809D209E099F18A208A302A580A620B220B340C0F5C2ADC4D6CAD1D4
:40024000CC5DCE7BD204D688D838E030E4C0EC80EE040603070808300A0C0C090DAC0E100F43101C1222153117C619301B401C401F5320142410282C29312A112B4E2F8C98
:400280003060310F33F0341F38023B0A4031410646CB47E0482C49FF4AFF4BFF4EF04F44500C580459045A045C115D015F0166C06A406B02D804D904DF01010402080322C1
:4002C000062809800B400E011084130414801510160117181B22210422082340280429202B022D102E013020318032083480362038083B443D403E284184492050A05202ED
:4003000091409618974099109C809E299F10A420A580A62AB440B520B640C067C289C4FECAACCC3ECE7AD00AD204580459045F01830287018B018F049002950498039B045E
:400340009E019F04A803A904AC04B101B204B302B403B504B820BE14BF10D401D804D904DB04DC20DD10DF010121020103300520071009800A180B400E101005122A130AE1
:40038000148015411609170819182050212028042D202E202F203030318032043480362038123B483D403E18581159085A408A088B0290029308941096109C809D209E2992
:4003C0009F10A620C06FC22FC4FFCA64CC3ECE7FD60F4030410645014620480949FF4AFF4BFF4DA04F0450185280580459045A045B045D225F01604062C06440654066C0AC
:4004000068C06AC06CC06EC0D804D904DF01012002200504061C071008800A100E101215148016211720288029042A202E203220348035043620372039103A093B013D109B
:400440003E183F0140104B2853107001C066C225C4F7CA27CC74CEE7D002D20488408C088E089C48A608E810580459045F0192019B02A204A701AA02B004B102B202B3016B
:40048000B601D602D73AD804D904DB0CDF01004003A0050508110A220C100F9810081101121014041502184219051A201BC0210122012390280429012A082C042F8031048B
:4004C00032013390350537803B143F1C58086208680869416B507140720878447B20940295409622971098059A109D459E089F50A304A408AA04AC04B410B540C03DC27F1A
:40050000C45ECAA7CCDFCE66D602D802DE08E601EA08EC01D401D804D904DB0CDF0100380402062808800B800D200E010F40108212201501161117101D131F0424012508BF
:4005400026082750288029102A102D822E2830823220361A381039023B803C803D283E013F40453A47404D014E0257105A806203794082408D1291029380940197089882ED
:400580009D01A096A220A710AA40AF08B480B730C076C2D9C4FDCAF1CCEDCEFDD0F0D210D608DE08E840EC4000010601110112021B032004280431023204340337013808F3
:4005C0003E04520353025804590C5B045C095F0182068340841885108728880889408C018D018E4096019740983F99249B129C399E04A010A140A439A53FA602A827A93FE6
:40060000AA18AD0AAF14B020B101B240B338B506B61FB740B980BAA0BE01D602D710D804D904DB04DC11DD10DF01000505800628074008020E151008130115101610171962
:40064000182419101C401D201E1520012102224024022504261227402C802D802F283112361037083D983E015C40680969406A206D806F2874407628770179408480852039
:40068000880189808C108E108F0194029540968198029A109B109D809E28A440A524A612C0FCC2E8C47ACAF0CC65CEF0D610DE08E2C0E640E8101302168032403B023E8034
:4006C000C430CC10CE6053805602968097029B02D420D6208602968097029B029E02A780E61096809B02A780AB01EE206308D8021B042780B704C608C801E80244028D025A
:400700009B80AB04D004E002240882409680AB82C820E680EC80EE20B40499029B809C021101750289018F8099029B80B402C408DE04E609E808000701010A010C030D01E8
:400740000E07100311011A011C031D010003100A8080000040000000000C103306330080023F000000080000040000330033000C0F22004007000800000F103006040900E1
:40078000090C06000011094007C0100F0E00003000002008000004013502040001E0C0000AFFFFFF62A0F0410C0000000000000004040400110100010000000000004002F0
:4007C0000010301000101012000000000000000000000000000000000040400000030300800040808000800000000000000B0B00000000000010100010000000000100006A
:4008000000000000000000000000000000000000000000000000000000000000000000000000000000000000000000000000000000000000000000000000000000000000B8
:400840000000000000000000000000000000000000000000000000000000000000000000000000000000000000000000000000000000000000000000000000000000000078
:400880000000000000000000000000000000000000000000000000000000000000000000000000000000000000000000000000000000000000000000000000000000000038
:4008C00000000000000000000000000000000000000000000000000000000000000000000000000000000000000000000000000000000000000000000000000000000000F8
:0200000490006A
:0400000000004005B7
:0200000490105A
:04000000BC90ACAF55
:0200000490303A
:02000000E0FA24
:0200000490402A
:4000000000000000000000000000000000000000000000000000000000000000000000000000000000000000000000000000000000000000000000000000000000000000C0
:400040000000000000000000000000000000000000000000000000000000000000000000000000000000000000000000000000000000000000000000000000000000000080
:400080000000000000000000000000000000000000000000000000000000000000000000000000000000000000000000000000000000000000000000000000000000000040
:4000C0000000000000000000000000000000000000000000000000000000000000000000000000000000000000000000000000000000000000000000000000000000000000
:0200000490501A
:0C00000000012E16106900012E24F1638F
:00000001FF