:400000000080002011000000810800008108000008B5044B1A6803F53F5302331A6000F037FC00BFFA46004010B5054C237833B9044B13B10448AFF300800123237010BD32
:40004000B882FF1F0000000028200000084B10B51BB108490848AFF300800848036803B910BD074B002BFBD0BDE81040184700BF00000000BC82FF1F28200000C880FF1F90
:400080000000000008B5002000F03CFF08BD00BF684620F007018D4619B572B6EFF311841E4B1B68DBB20F2B10D9103B23F0030202F1604202F564421168DB0003F018031B
:4000C000E0229A400A4022FA03F306E00F2B03D1134B1B681B0E00E0002383F31188114A136801331360012B01D101F0A7FD62B6FFF7C8FF72B684F3118801F0FDF8094A62
:400100001368013B13601BB901F0A1FD01F065FD62B6BDE819408546704700BF04ED00E020ED00E04483FF1F08B562B645F6BF52054B1A60054A136843F002031360002065
:4001400001F0C8F9FBE700BF14E000E010E000E008B500F085F901F0E7FC00F0A7F901F01DFA094A136843F00503136001221146002000F049FD042000F0D2FC012000F0B2
:40018000CFFC01F0EDF908BD10E000E008B5022000F0C6FC0421022000F05AFF032000F0BFFC08BD00BFFDE738B5244B1B7813BB234B9A6801211970002159600221597013
:4001C0005569936873B13DB90CE0996855F8240000F03EFF013400E00024194B9B681A699442F2D3164B5B78022B25D1144883685B68984738BD0021114B9A6819705960ED
:40020000022159705569936873B13DB90CE0996855F8240000F01CFF013400E00024084B9B681A699442F2D3054B5B78022B03D1034883685B68984738BD00BFD880FF1FC3
:40024000F080FF1F30B583B0134B1B88ADF80430ADF800305BB2002B02DC4FF0000300E05B000E4A9168137000235360022353704D698B6873B13DB90CE0996855F82400E3
:4002800000F0E6FE013400E00024044B9B681A699442F2D303B030BDCC80FF1FD880FF1F70B586B02C4801F059FC2C4C0A2201A9606801F068FE01A801F050FC6368B3F566
:4002C0007A7F25D2264B1E78A268267000216160022161705569936873B13DB90CE0996855F8240000F0B4FE013400E000241B4B9B681A699442F2D31A4801F02FFC0A2254
:4003000001A9304601F03FFE01A801F027FC18E00021124B9A6819705960022159705569936873B13DB90CE0996855F8240000F08FFE013400E00024084B9B681A69944276
:40034000F2D3064B5B78022B03D1044883685B68984706B070BD00BF3C200000E480FF1FD880FF1F2C200000224B9B681A68002A3FD030B583B01F4A128802A820F8082D3B
:400380001B689847E8B9BDF80010ADF80410194B9A6819800021596002219970556993682BB33DB923E0996855F8240000F050FE013400E000240F4B9B681A699442F2D3C3
:4003C00015E00C4B03229A709B68DD69DB6873B13DB90CE0D96855F8240000F039FE013400E00024034B9B689A699442F2D303B030BD7047CC80FF1F10B5084C2268022168
:40040000074800F06BF823680133236013F5807F01D90022226001F0A3F810BDD482FF1F4020000008B5012000F09AF801F098F808BD00BF00B583B000230193032000F00F
:4004400087FE01A9042000F0E3FD019800F0B2FD019A0221014800F059F8EFE75420000008B501F02FF901F041F9002008BD00BF70B506460D46002001F03CF9002001F0CF
:4004800045F984B2012001F041F980B2D4F5006400D50F3444F307143470D0F5006000D50F3040F307102870002070BD08B501F0F1FA01F0ADFA01F069FA002001F0CAFA4D
:4004C000002001F085FA002001F040FA002008BD08B501F07DFA002008BD00BFF8B506460F46154600240DE006EBC4039A88B5FBF2F302FB13531BB956F834300020984762
:400500000134A4B2BC42EFD30020F8BDF8B505460E461746002409E005EBC4035868384202D055F8343098470134A4B2B442F3D30020F8BD08B5007801F0BAFA002008BDB7
:4005400010B50446FFF7B2FF2078FFF7C1FF002010BD00BF08B5411CFFF78AFF002008BD104B5B68034413F1011F01D80D4A53600C4B1B69034413F1011F01D8094A1361FB
:40058000084BDB69034413F1011F01D8054AD361044B9B6A184410F1011F01D8014B9862704700BFCC80FF1FFEE700BFF0B40022174611E050F82760F3B226F0FF0608E0DE
:4005C00001EB420511F812406D78A5550132013BDBB2002BF4D10137232FEBD9F0BC704708B50A46002101F0DBFC08BD38B50122284B1A801823284A13700E2102321180F5
:4006000002321370192502321580023213700222224B1A7008224FF040231A70032103F5007319701E4B1B78DBB21E490B701E4B1A8041F25122023B1A8000240CE01B4B5B
:400640001B7803F0010343EA440404F003044FF4F07001F0A5FA013D0DB1032CEFD115B90320FFF7A1FF124B4FF480721A8007221A7000220F490A704820023108701A706B
:400680000222033B1A700C4A137843F00703137038BD00BF80400040824000400043004008010049A146004022420040254200400440004006400040A2430040F8B5164B73
:4006C0001B78DBB2154E3478E4B2154F3D78EDB203F00701134A11701B090132137044F00303337045F003033B7003220E4B1A7040230E4A13700232137030220C4B1A70D7
:40070000202203331A700A2000F000FA3D7034704422084B1A70F8BDCF010049F8460040F94600406E5800400D51004001590040205B00407658004008B501F026FC08BDA8
:4007400038B572B63A4A137843F00403137000240CE0384D630019194A0011462A44084691882858FFF73CFF0134E4B2062CF0D900240BE02F49A30018194200881806221C
:40078000016BC06AFFF7D8FF0134E4B2002CF1D029494FF09040FFF709FF04212748FFF71FFF042226492748FFF7C6FF264A137843F0020313701032137843F002031370FA
:4007C000224C237843F040032370A2F58632513A137843F01003137008221D491D48FFF7ABFF0A221C491D48FFF7A6FF08221C491C48FFF7A1FF08221B491C48FFF79CFF87
:400800001B4A137843F0080313701A4D61232B70FFF7ECFE81232B700122174B1A70FFF74DFF0E2221461548FFF786FF38BD00BFE8460040102100009000004800760040C1
:40084000740800480876004003500140A0430040500800480251004058080048C051004064080048125100406C08004822510040224300400048004004000840B0430040A1
:4008800008B501F03DFB03680C2B00D1FEE7FEE708B5104E104D16E029686B68AC68002204E051F8040B43F8040B0432A242F8D1E868002203E0002143F8041B04328242DA
:4008C000F9D11035013E002EE6D101F01FFBFFF72BFCFEE701000000E823000008B5114A114B1A60114A136843F40073136000230AE0032B03D80E4A52F8231000E00D49AA
:400900000D4A42F8231001332F2BF2D90B4B1A780B4B1A70084A0B4B1A60FFF711FF00F013F808BD0004FA050CED00E014ED00E000000000810800000080FF1FBC76004094
:40094000C080FF1F08ED00E00B4A7F2313708021517007E0DA0002F1804202F5F042013BDBB21370002BF5D1DB0003F1804303F5F04300221A707047FC80FF1F172815D8A6
:4009800031B103010A495A5C42F020025A5405E0030107495A5C02F0DF025A540001044A835C43F00103835400207047012070471070004017280CD80001074BC1180A7959
:4009C00042F004020A71C25C42F00102C254002070470120704700BF1070004017280BD80001064A835C03F0F103490001F00E01194381540020704701207047107000408B
:400A000041F6FF73994201D14FF4005141F6FF739A4201D14FF40052172808D8C00000F1804000F5EC408180C280002070470120704700BF172805D8034B03EB0010417263
:400A400000207047012070471070004017281BD810B4C00000F1804404F5EC44D201D2B201F07F01114321709DF804201201D2B203F00F03134363709DF8083003F00F0376
:400A8000A3700020E07001E00120704710BC704710B501F08DF80A4B5B78182B0BD9084A1478013B5370E30003F1804303F5F0431B78137000E0FF2401F07EF8204610BD98
:400AC000FC80FF1F10F0800F0CD111F4704F0BD1C00000F1804000F5F04001808270C37000207047012070470120704710F0800F08D1C00000F1804000F5F0408180C2804C
:400B0000002070470120704701BE704708B5034B1B7A00FB03F001F043F808BD0481FF1F38B5EFF3108572B604284ED82D4B53F82030002B4BD02B4A013B42F820302A4B87
:400B400053F82030032B07D10222274B43F820200022264B43F8202000F03EFC244B1B68002B36D1234B1C6800F014FCB0F1FF3F31D0214B53F82020204B1B689A422CD9CF
:400B8000B4F1FF3F03D00221174A42F824101C4A52F820201343194A13600022124B43F8202000F0B3FB174B53F820304BB10024144B43F8204040F0004001F051F82046B2
:400BC0000CE001F04DF8002008E0032006E0042004E0002002E0002000E0002085F3108838BD00BF5C81FF1F0882FF1F0083FF1F4483FF1FF081FF1FD02200001C83FF1F6D
:400C0000B0220000D882FF1FF8B5EFF3108472B628BB00EB4005AB00184DEB5803EB4306B500174E75598D421BD34AB103EB43039E00134B1E44B3689A4214D3954214D3B4
:400C4000A9B103010F4DEB589BB90301EE180127EF507260013900F087F800200AE0032008E0082006E0082004E0082002E0082000E0072084F31088F8BD00BF68220000C2
:400C80007C2200007483FF1F18B108B5C368984708BD704708B508B1406800E00020042816D80C4B53F8203093B10A4A013B42F82030094B53F82030032B07D10222064B83
:400CC00043F820200022054B43F8202000F084FB08BD00BF5C81FF1F0882FF1F0083FF1F18B1034640689B6801E00023184604281DD80F4A52F82020CAB10E4A52F82010E5
:400D0000032914D010B50C4C54F820201A4344F820200A4A52F82020134207D0012905D10222044B43F8202000F056FB10BD7047882200000882FF1F0083FF1FEC82FF1FE5
:400D400080B108B50378012B06D013B1032B06D008BDFFF79FFF08BDFFF7C2FF08BDFFF793FF08BD704700BF30B400EB40029300214AD258214B03EBC2035C68B4F1FF3FE4
:400D800004D11E4B03EBC20250602DE01C4B03EB04139B6899420AD2184D05EBC2025060174A02EB04125B1A93601DE01C46144B03EB04139A68891ADB68B3F1FF3F05D069
:400DC0000F4A02EB031292689142EFD2B3F1FF3F05D00B4A02EB031295686D1A9560084A02EB0414E0601C46054B03EB00108160C46030BC704700BF682200001881FF1F94
:400E00007483FF1F38B5394A02EBC0035C6852F83030013342F8303000EB40018A0034498A58934203D90022304B43F83020B4F1FF3F59D02F4B03EB04139B68002B4ED17B
:400E4000214600E019462B4B03EB0113DB68B3F1FF3F05D0274A02EB03129268002AF1D0244A02EB01114FF0FF32CA601F4A02EBC0004360B3F1FF3F07D01E4A02EB03131E
:400E80009A68013A9A6000E02C4604EB44029300194A13441B7A7BB904EB44029300164A13445A68154B53F8223003EB83039A0013481044FFF744FF0E4B03EB0413DD6887
:400EC000596821B101392046FFF74EFF03E024010022084B1A51B5F1FF3FD5D138BD054A02EB0414013BA36038BD00BF1881FF1F7C2200007483FF1F682200007822000040
:400F00005422000038B5EFF3108572B6002838D1FFF778FF204B1B68002B34D11F4B1C6800F038FAB0F1FF3F2FD01D4B53F820201C4B1B689A422AD9B4F1FF3F03D0022170
:400F4000194A42F82410194A52F820201343154A13600022144B43F8202000F0D7F9144B53F820304BB10024114B43F8204040F0004000F075FE20460AE000F071FE00201C
:400F800006E0032004E0002002E0002000E0002085F3108838BD00BF4483FF1FF081FF1FD02200001C83FF1F0882FF1FB0220000D882FF1FEFF3108372B6114A1168114A7D
:400FC000126882B9B1F1FF3F0FD00F4A52F821206AB110B40D4C54F8212022EA000044F82100002007E0022002E0022000E0012083F31088704783F3108810BC704700BF28
:40100000F081FF1F4483FF1F882200000083FF1F04280FD80B4B53F820306BB10A4B53F82030032B0AD059B1084B53F820300B60002070470320704701207047072070470F
:401040000E207047882200000882FF1F0083FF1F38B5EFF3108472B6042853D8324B53F82030002B50D0314B53F82030032B4DD02F4D55F820200A4345F820202D4A52F85D
:401080002020114244D0012B44D10222274B43F8202000F0A1F9284B1B68002B3CD1274B1D6800F077F9B0F1FF3F37D0244B53F82020244B1B689A4232D9B5F1FF3F03D0B8
:4010C00002211A4A42F825101F4A52F8202013431C4A13600022154B43F8202000F016F91A4B53F820304BB10025184B43F8205040F0004000F0B4FD284612E000F0B0FD9F
:4011000000200EE003200CE001200AE0072008E0002006E0002004E0002002E0002000E0002084F3108838BD882200000882FF1F0083FF1FEC82FF1F4483FF1FF081FF1F55
:40114000D02200001C83FF1FB0220000D882FF1F38B5EFF3108472B6364B1D68364B1B68002B5DD1B5F1FF3F5CD0344B53F82530002B59D0324B53F82530034256D1314B00
:4011800043F825000122304B43F825202F4B53F825002F490B6823EA00030B602D4B43F825202D4B53F82520224B1A6000F0F2F8B0F1FF3F06D0294B53F82020244B1B68FA
:4011C0009A420DD81B4B1868B0F1FF3F03D000221D4B43F8202040F0004000F041FD1AE00021194A42F82010184A52F820201343174A136000F08AF8164B53F8203043B193
:401200000022144B43F8202040F0004000F028FD01E000F025FD00200A4B43F8250006E0022004E0022002E0012000E0002084F3108838BDF081FF1F4483FF1F8822000032
:401240000083FF1FEC82FF1F0882FF1FB02200001C83FF1FD882FF1FF481FF1FD022000008B500F053F8084B53F8203043B10022054B43F8202040F00040044B186008BD4A
:40128000024B186008BD00BFD882FF1F4883FF1F10B500F07FF8124B1B68B0F1FF3F1AD0104A52F82010104A1268914213D9B3F1FF3F03D002240D4941F8234000210B4B04
:4012C00043F820100A4B53F820301A43064B1A60FFF7C6FF10BD43F00043064A136010BDF081FF1FD02200001C83FF1F0882FF1FB02200004883FF1F034B1B6813B1002285
:40130000014B1A60704700BF3883FF1FF0B4184B19880B0A174AD356B3F1FF3F01D1535601E008335BB2144D55F82320134850F82200134E56F8224045F82340114D2F686F
:4013400046F822702A60B4F1FF3F09D10E4A42F82340012202FA03F321EA0301044B19800A4B19680A4A42F820101860F0BC70471883FF1F48210000B081FF1F4C83FF1F88
:401380003481FF1F1483FF1F7081FF1FF081FF1FF481FF1F0C4B1A88130A0C49CB56B3F1FF3F01D18B5601E008335BB2B3F1FF3F06D0074A52F82320064B53F8220070471F
:4013C0004FF0FF30704700BF1883FF1F48210000B081FF1F4C83FF1F30B4144B53F82020134C2368134951F823502560124C44F823004FF0FF3441F82340104951F82210B7
:40140000A1420AD10E4951F820400E480188214301800D4941F8223002E0064840F82130064941F8223030BC704700BF4881FF1F1483FF1F3481FF1F4C83FF1F7081FF1FE9
:40144000D02200001883FF1FB081FF1F10B150F8210070474FF0FF30704700BF0122014B1A60FEE74083FF1F70B50546124B53F8306000241CE0104B03EBC50321465868FE
:40148000FFF7E4FF0D4A52F82030013B42F820300B4B53F82030032B07D10222084B43F820200022074B43F82020FFF795FF0134B442E0D370BD00BF482200005C81FF1F0B
:4014C0000882FF1F0083FF1F18B908B5FFF7CCFF08BD7047194B1A4ADA621A4A9A631A4ADA63EFF3108272B6184B1B6813BB10B5044600F053F8164B1C600122134B1A6060
:401500002046FFF7E1FFFFF745FFB0F1FF3F0ED0104B53F82030104A11680B43136000220E4B43F82020FFF7F1FE00F099FB62B6FFF794FF82F31088072070470080FF1F65
:40154000211C0000E51B0000910000004083FF1F548BFF1FB02200001C83FF1F0882FF1F08B5EFF3108272B6094B1968094B1B6833B94FF0FF30084B43F82100002000E07A
:40158000022010B9084600F0C4FB82F3108808BDF081FF1F4483FF1F2081FF1F10B5EFF3108472B600F00CFB034A136843F07F43136084F3108810BD20ED00E010B541F6EF
:4015C000FF734FF480420121022000F061F9084C207041F6FF731A460121042000F076F96070044800F090F9002000F093F910BD2483FF1F2917000070B52C4C2078FFF726
:40160000D9F96078FFF7D6F9294B1B78FF2B03D1FFF73EFA264B1870254D2878062302460421FFF74FFA214E341DA4B2224645F6A0312878FFF75AFA29783078FFF7FAF982
:401640006B78FF2B02D1FFF723FA6870184D6878072302460421FFF735FA164A92B221466878FFF743FA114C69786078FFF7E2F901212078FFF782F901216078FFF77EF907
:4016800000F096FA0C4A137843F02003137000F093FA0A4B1A7842F001021A701A7842F002021A700122064B1A6070BD2483FF1F4882FF1F588DFF1F996500407865004055
:4016C00080E200E008B5074B9B6823B9FFF776FF0122044B9A6000F0C5F8FFF78DFF024B1B7808BD2483FF1F6864004008B500F0C7F808BD044B1B7803F0FF020BB900284B
:40170000F8D01046704700BF68640040C0F10100034B33F91030034A1088181A00B27047588DFF1F5E8DFF1F704700BF08B50A280FD00C2802D0082806D102E04FF48052C9
:4017400009E04FF4807206E00020FFF7DDF9002201E04FF480620021094B198042F2107303FB02F303F6C413064A82FB0302DB17C3EBE223044A1360044B198008BD00BF25
:401780005C8DFF1FAD8BDB68648DFF1F5E8DFF1F10B500F00DFA0446184A137843F0010313701032137843F00103137002F5AA520832137843F0030313701822104B1A70C8
:4017C000013B1A7842F040021A701A7802F0FC021A70C822053B1A700222A3F597530C3B1A70084A137843F0080313700A20FFF78DF9204600F0E0F910BD00BFAB430040B9
:4018000006590040275B004010B504460A280DD00C2802D0082804D101E0C22207E0422205E00020FFF770F9C22200E08222034B1A702046FFF77AFF10BD00BF025900406E
:4018400008B5064A137843F0060313700C20FFF7DBFF0022024B1A8008BD00BF01590040608DFF1F08B5054B1B7823B9FFF7E8FF0122024B1A70FFF78BFF08BD3083FF1F7A
:40188000024A137843F001031370704700590040F0B583B016461F460B4C012525700023019300932B460A4601462846FFF7CEF83A4631462078FFF7A3F802212078FFF74F
:4018C0008DF8207803B0F0BD4A82FF1FF0B583B016461F460B4D00242C700194009423460A4601462046FFF7B1F83A4631462878FFF786F802212878FFF770F8287803B023
:40190000F0BD00BF4B82FF1F014B1B681864704708ED00E04001C0B2014B1870704700BF00E400E0024A137843F08003137070477D640040014B1870704700BF0E640040D4
:40194000014B1870704700BF4E640040014B1870704700BF2E64004008B50B4A137803F0C00343F0090313702132137843F001031370FF20FFF7DEFFFF20FFF7E1FF7F20DC
:40198000FFF7E4FF08BD00BF7D64004008B5054B1B7823B9FFF7E0FF0122024B1A70FFF7C1FF08BD3183FF1F024A137843F08003137070477B640040014B1870704700BFE1
:4019C0000D640040014B1870704700BF4D640040014B1870704700BF2D64004008B50B4A137803F0C00343F0090313702232137843F001031370FF20FFF7DEFFFF20FFF72B
:401A0000E1FF7F20FFF7E4FF08BD00BF7B64004008B5054B1B7823B9FFF7E0FF0122024B1A70FFF7C1FF08BD3283FF1F024A137843F08003137070477A640040014B187059
:401A4000704700BF0A640040014B1870704700BF4A640040014B1870704700BF2A64004008B50B4A137803F0C00343F0090313702032137843F001031370FF20FFF7DEFF54
:401A8000FF20FFF7E1FF7F20FFF7E4FF08BD00BF7A64004008B5054B1B7823B9FFF7E0FF0122024B1A70FFF7C1FF08BD3383FF1F044A137803F0BF03800100F040001843E3
:401AC00010707047005100407222084B1A702022A3F201131A7006229E331A70472210331A70002250331A70704700BF8A65004010B500F05DF804460A4A137843F0200322
:401B00001370A2F20112137843F010031370FE32137843F01003137000F032F8204600F04BF810BD9A65004008B5054B1B7823B9FFF7CAFF0122024B1A70FFF7D9FF08BD1C
:401B40003483FF1F034B1B7813F0040FFAD1024B18707047676500404764004038B5074B1B782BB938BDFFF7EDFF0134A4B201E005460024285D0028F5D138BD3483FF1FA6
:401B8000054A137843F0040313701032137843F004031370704700BFA2430040000000000230800803D000BF01380046FCD17047EFF3108072B6704780F31088704700BF48
:401BC00018484FF47F0102680A43026016486FF07F4102680A400260704714484FF080510160704772B611484FF000610160FFF74FFB0F48006800F0C3F858B10C480068EA
:401C00004FF080730B4A0C490FB40FB46FF00600004700BF6FF0060062B6004762B600DF08B0704720ED00E01CED00E004ED00E04883FF1F611C00001D1C0000EFF30880FD
:401C4000054908600548006880F3088870470248006880F3088870474C82FF1F3C82FF1F411C8900154A11440968154A136899421AD0F0B444464D4656465F46F0B400B506
:401C8000104C9B002344EFF308851D60116089002144096881F3088802BC8E46F0BCA046A946B246BB46F0BC002806DB00B500F05BF802BC8E46FFF7D3BF70470C2300004D
:401CC0002083FF1F4082FF1FF0B444464D4656465F46F0B400B5EFF3038308B48000174901440968164A0244EFF30883136088471448804704BC4FF08070024382F3038882
:401D000001BC8646F0BCA046A946B246BB46F0BC704780000A4901440A6882F3088804BC4FF08070024382F3038808BC9E46F0BCA046A946B246BB46F0BC7047E4220000EF
:401D40006083FF1F491D000008B572B6014B1868FFF7DFFFF081FF1F08B5024B1868FFF7B3FF08BDF081FF1F08B562B6FFF7F4FF72B600F041F8014B186808BD4883FF1FD9
:401D800000280BDA20F000400130054B53F82000044B1B68181A18BF01207047012070470C2300002083FF1F054B53F82020054B53F820309A4201D101207047002070473C
:401DC0005C81FF1F9C22000008B5FFF79FFA084B53F8203043B10022054B43F8202040F00040044B186008BD024B186008BD00BFD882FF1F4883FF1F38B5364B1C68002255
:401E0000354B1A60354A52F82430013342F82430334B53F824502046FFF7C6FF012801D0A54204D103222F4B43F8242003E002222C4B43F824202C4B53F824102B4A1368B4
:401E400023EA010313602A4B53F82440214B1C60B5F1FF3F0FD0234B53F82530032B07D10222204B43F825200022224B43F825202846FFF7B1FAFFF78DFAB0F1FF3F0BD196
:401E8000B4F1FF3F03D00022164B43F8242044F00044194B1C6038BD184B53F82020134B1B689A4208D800220E4B43F8242044F00044114B1C6038BD00210A4A42F8201074
:401EC000094A52F820201343084A1360FFF77CFF38BD00BFF081FF1F3883FF1F5C81FF1F2081FF1F0882FF1FB02200001C83FF1FF481FF1F0083FF1F4883FF1FD02200005D
:401F0000014B1868704700BFB082FF1F0E4B70B51E460E4C0025E41AA410A54204D056F8253098470135F8E700F04CFA084B094C1E46E41AA4100025A54204D056F8253033
:401F400098470135F8E770BDD0230000D0230000D0230000D8230000931E222B10B50C4602D90020087010BD0A2A06D1002804DA2D230B704042012100E00021214400F041
:401F800017F8204610BDFFF7E7BF10B5431E0A44914204D011F8014B03F8014FF8E710BD03460244934202D003F8011BFAE77047F0B58BB003460F466D461A4C04F1200E3D
:401FC0002E4620686168083403C674453546F7D1217920683171911E222930604FF0000001D938701CE07D1EB3FBF2F402FB14330AAE334413F8283C411C05F8013F2346FC
:402000000CB10846F0E77C543A18C11A8B4206DAF95C1478FC5402F801190133F5E738460BB0F0BD9E23000000000000456E67696E6520737065656420706F730A00000015
:40204000690300000A000000A102000064000000020000004502000001000000A90100000200000002000000000000003505000000000000000000000000000000000000B1
:4020800000000000000000000000000000000000000000004105000000000000000000000000000000000000000000000000000000000000000000000000000000000000DA
:4020C000020000000000000001000000E0200000000000000000000000000000000000000400000055050000000000000100000000000000010000000C2100000000000050
:4021000000000000000000000000000004000000305100404000F0510040100000000140001000140140000800400140000A004C014000020050014020000000605200409E
:402140004808004806000000FF00010102020202030303030303030304040404040404040404040404040404050505050505050505050505050505050505050505050505E8
:4021800005050505050505050606060606060606060606060606060606060606060606060606060606060606060606060606060606060606060606060606060606060606A7
:4021C0000606060606060606070707070707070707070707070707070707070707070707070707070707070707070707070707070707070707070707070707070707070727
:4022000007070707070707070707070707070707070707070707070707070707070707070707070707070707070707070707070707070707070707070707070707070707DE
:4022400007070707070707070100000050220000000000000300000000000000000000008D010000FFFFFFFF000000000000000000000000000000000000000010270000EF
:402280000000000001000000000000000000000000000000000000000100000001000000010000000100000001000000010000008000000001000000200000000200000074
:4022C00010000000010000000200000004000000010000000100000020000000020000001000000051010000A5010000F90300002504000035040000591D0000591D000051
:40230000591D0000591D0000591D0000000000000000000000000000000000000000000001000000616C726D5F63616C6C6261636B00000065765F6A6F79737469636B5FF9
:402340006F6E44617461000065765F73706565645F6F6E446174610065765F316D73000074736B5F696E69740000000074736B5F6261636B67726F756E64000074736B5FD3
:40238000696F000074736B5F73797374656D000074736B5F636F6E74726F6C004300303132333435363738396162636465666768696A6B6C6D6E6F707172737475767778C1
:4023C000797A0000F8B500BFF8BC08BC9E4670474D000000DD080000F8B500BFF8BC08BC9E46704729000000F8230000C880FF1FF0010000B00A0000000000000000000065
:4024000000000000E42000000000000000000000B82000000000000000000000902000000000000000000000682000007F800000030000000000E02EC05D00001800000043
:4024400000366E012423000000000000FFFFFFFFFFFFFFFFFFFFFFFFFFFFFFFFFFFFFFFFFFFFFFFF01000000020000000300000004000000FFFFFFFF000000000000000082
:402480000500000001000000040000000100000001000000010000000100000001000000FFFFFFFFFFFFFFFFFFFFFFFFFFFFFFFFFFFFFFFFFFFFFFFFFFFFFFFFFFFFFFFF2D
:4024C000FFFFFFFFFFFFFFFFFFFFFFFFFFFFFFFFFFFFFFFFFFFFFFFFFFFFFFFFFFFFFFFFFFFFFFFFFFFFFFFFFFFFFFFFFFFFFFFFFFFFFFFFFFFFFFFFFFFFFFFFFFFFFFFF1C
:40250000FFFFFFFFFFFFFFFFFFFFFFFFFFFFFFFFFFFFFFFFFFFFFFFFFFFFFFFFFFFFFFFFFFFFFFFFFFFFFFFFFFFFFFFFFFFFFFFFFFFFFFFFFFFFFFFF0300000003000000CD
:40254000030000000300000003000000342300004823000058230000602300006C2300007C2300008423000090230000588DFF1F000000002C8BFF1FFFFFFFFF0000000036
:4025800000000000000000000000000000000000000000000000000000000000000000009C230000000000000000000000000000000000000000000000000000000000005C
:4025C00000000000000000000000000000000000000000000000000000000000000000005082FF1F00000000000000000000000000000000000000000000000000000000EB
:40260000000000000000000000000000000000000000000000000000000000000000000000000000000000000000000000000000000000000000000000000000000000009A
:40264000000000000000000000000000000000000000000000000000000000000000000000000000000000000000000000000000000000000000000000000000000000005A
:40268000000000000000000000000000000000000000000000000000000000000000000000000000000000000000000000000000000000000000000000000000000000001A
:4026C00000000000000000000000000000000000000000000000000000000000000000000000000000000000000000000000000000000000000000000000000000000000DA
:020000040003F7
:0200000480007A
:4000000003520040015B0040016400400365004002030140030501403D06014033070140290801403C090140330A0140400B0140360C0140420D0140230E0140280F0140B5
:4000400007150140311601403C170140461801404E190140341A01403F1B0140084001400A41014003420140014301400945014007460140034701400448014001490140B6
:40008000034C01400B4D01400B5001400251014001021020111827848938870F89018A72E480E60C8501E208EE010B01110117011901270131013F01580459045C115F01DE
:4000C0008603872989188B208C098E108F069030920C95169721984099189B239C2C9D189E119F25A010A414A81CAA22AF02B060B107B41FB73CB802BB82C012C104C50C25
:40010000C6B0C7E0C829C9FFCAFFCBFFCEF0CF44D00CD804D904DA04DC22DD02DF01E6C0EA40EB020044055006200A860E200F06100412501680184421412241230227404D
:400140002A402C202E2C2F81301031043240341435443702384039103A083C203D113E903F064141420448105210530282808610878088108A019101C0E5C2EBC41ECAF8FD
:40018000CCFECEFED00DE201E6085401580459045B0C5C115D105F018201860488088E02908092409301942096109A089C029F04A004A401A840AA80AB02AC10AE20AF012A
:4001C000B102B304B4FFB501BA80BE10BF10D418D804D904DB04DC12DD20DF0100AA014A0210032005020611081909800AAC0E440F901080118012031314152018081A01A0
:4002000022222390281829422E443109324033203502378039483B103C883F104C044D105A025F4062A07F0281088202860491089208951097149802A045A340A490A580DE
:40024000A602C0BFC27FC44FCA5FCC9FCE7ED611D80CDE100004041007010A200C081202160118201E08221026042A402E0130023201367C370138803E40404041064712E9
:40028000483049FF4AFF4BFF4DA04F0450185280580459045A045B045C105F01604062C06440654066C068C06AC06CC06EC0D280D804D904DB04DC11DF0100AA012803C005
:4002C00005080741088809800A4C0E050F1010801110120113041680184019401A011B44200229082B802E042F80314032063301354036023A803B543C083F504040480817
:400300005008520172407502850486018C4892089340971098029C809D62A044A480A602A784A804AB44C0BFC2EFC41FCAC3CC9BCE7ED001D204E804EC04050309020B01D1
:400340000D0311031F0321032903350237015608580459045B045C115D905F0182028E0492089A019E04A601B008B204B402B601C020C106C610C702C818C9FFCAFFCBFF58
:40038000CDA0CF04D018D280D804D904DA04DB04DC10DF01E040E2C0E440E540E6C0E8C0EAC0ECC0EEC0004001020680070109800A440C040E010F54121015101720186004
:4003C0001A041B4024082680280429402A802B802D102E012F8032063301354036023B443F5442044808500852105D8064027240868089808C1092089344944097109B20EB
:400400009C809D60A044A180A480A602A780B020B140C099C2FBC444CAADCC93CE7AD004D204D610D810E480E6041F0223042B013104330135024040410646014702481421
:4004400049FF4AFF4BFF4DA04F045018580459045A045C115F01604062C06440654066C068C06AC06CC06EC0D804D904DC11DF010080054008410B100C400F541208138429
:40048000160117202088220C236428A229202C402F903080320434013540360A37803A013B743F44404243804808500851806203C081C2FDC4C7CACFCCDACE5FD001D2049E
:4004C000AC08AD40AEA0B301EA08EC20EE08580459045C115F01820884108D038E0C9103940C96039B019C019E0EA001A206A502A603AD04B010B103B20FB304B902BA0832
:40050000BE01BF05C004C604C9FFCA07CBFFCC40CD20CEF0CF05D008D401D804D904DA04DB04DC12DD22DF01E040E1A8E240E32000440240055006A00A220E200F241020C0
:400540001302150119041A201B0121022204280129142B822D012EA0302831403201355039813A203B043F2441024820524058015A185B40904491819212930499109A80C7
:400580009B429D449E60A210A382A420A910AB01AF04C0FDC265C41CCABFCC3FCE6FD001D60FE220EA02EE04130217011901350352035302580459045B045C915D105F01A6
:4005C0008012828C84248504868A8B088C018D0190089270970399049F08A43FA83FB038B102B206B304B401B501B6C0B708B908BE40BF44C032C104C205C401C5E0C6C050
:40060000C80AC9FFCAFFCBFFCC62CDA0CEF0CF41D00CD602D739D804D90CDA04DB0CDC12DD12DF01E640E702E910EA30EB10ED10EE10EF1200020108030105020610088050
:400640000A410E040F90132815201680180519081A401B012040210822A027042C033240331434023620370438683D803E80408541044981501059805A90610868926A20A0
:400680006C046E106F02718073047B028A208B4091209205931096229744980299029A109B109C019D41A140A340A490A580A680A702A908AC40AD10B710C03DC278C456A0
:4006C000CCEECE0ED00FD208D604D802DE08E22000040280050C0603083C09040A420DFF13F315F31604170C183C190F1A411BF01C7F1D0820102141240825822818291CEF
:400700002BE32C672DC32E18302031C03280330F341F352C3640371C38803A203B283E0156025713580459045B045C225D205F01D804D904DC11DF0100060120050206305D
:400740000A110B040E440F9010AA1560160819611A102020210C2251230429282B812E6830803108321033023502382839803DC03E043F104140420159016B2970BC800433
:40078000830288138B80900491209205931095089682990A9A109D409F29A140A341A401AD02AF10C03EC277C4CFCA7FCC8FCE7ED601E880EC201308168031803B023E80AE
:4007C000C430CC10CE6050045840830184408B0897029B08A580D4A0E630A580A804EE80A5805B106208670283048F10D401D601D802E4021B042420A704AA08AB01C608DB
:40080000C80144019020D00420808980A580C840B0409C01B410EE021040750288409902B001B102C408DE04E201E801EC04000701010A060C070E030F01100611011A0682
:400840001C061D010003100A80800000400000000040400000030300800040808000800000000000000B0B0000000000003838003800000000010000000000000000000056
:400880000000000000000000000000000000000000000000000000000000000000000000000000000000000000000000000000000000000000000000000000000000000038
:4008C00000000000000000000000000000000000000000000000000000000000000000000000000000000000000000000000000000000000000000000000000000000000F8
:4009000000000000000000000000000000000000000000000000000000000000000000000000000000000000000000000000000000000000000000000000000000000000B7
:400940000000000000000000000000000000000000000000000000000000000000000000000000000000000000000000000000000000000000000000000000000000000077
:0200000490006A
:0400000000004005B7
:0200000490105A
:04000000BC90ACAF55
:0200000490303A
:02000000EAB85C
:0200000490402A
:4000000000000000000000000000000000000000000000000000000000000000000000000000000000000000000000000000000000000000000000000000000000000000C0
:400040000000000000000000000000000000000000000000000000000000000000000000000000000000000000000000000000000000000000000000000000000000000080
:400080000000000000000000000000000000000000000000000000000000000000000000000000000000000000000000000000000000000000000000000000000000000040
:4000C0000000000000000000000000000000000000000000000000000000000000000000000000000000000000000000000000000000000000000000000000000000000000
:0200000490501A
:0C00000000012E16106900012E25FB21C6
:00000001FF