:400000000080002011000000210900002109000008B5044B1A6803F53F5302331A6000F087FC00BFFA46004010B5054C237833B9044B13B10448AFF300800123237010BDA0
:40004000B882FF1F00000000E81F0000084B10B51BB108490848AFF300800848036803B910BD074B002BFBD0BDE81040184700BF00000000BC82FF1FE81F0000C880FF1F12
:400080000000000008B5002000F0CAFF08BD00BF684620F007018D4619B572B6EFF311841E4B1B68DBB20F2B10D9103B23F0030202F1604202F564421168DB0003F018038D
:4000C000E0229A400A4022FA03F306E00F2B03D1134B1B681B0E00E0002383F31188114A136801331360012B01D101F0DBFD62B6FFF7C8FF72B684F3118801F08BF9094A9F
:400100001368013B13601BB901F0D5FD01F099FD62B6BDE819408546704700BF04ED00E020ED00E04483FF1F08B562B645F6BF52064B1A60064A136843F0020313600020FB
:4001400000F0F6F9002001F061FAFBE714E000E010E000E008B500F0B7F901F011FD00F0D9F901F0B7FA0E4A136843F00503136000F0F2F918B10B4801F01CFD02E00A4838
:4001800001F018FD01221146002000F0CBFD042000F054FD012000F051FD01F07DFA08BD10E000E0EC1F00001820000008B5022000F044FD0421022000F0D8FF032000F0B2
:4001C0003DFD08BD08B500F0B9F9FCE708B501F011FD012802D1002001F0D0F908BD00BF684620F007018D4619B572B6EFF311841E4B1B68DBB20F2B10D9103B23F00302A3
:4002000002F1604202F564421168DB0003F01803E0229A400A4022FA03F306E00F2B03D1134B1B681B0E00E0002383F31188114A136801331360012B01D101F033FD62B62E
:40024000FFF7C4FF72B684F3118801F0E3F8094A1368013B13601BB901F02DFD01F0F1FC62B6BDE819408546704700BF04ED00E020ED00E04483FF1F38B5032000F076F90E
:40028000184B5B78022B08D1164B1B7813B94FF0010104E04FF0000101E04FF00001124B9A68197000215960022159705569936873B13DB90CE0996855F8240000F056FF98
:4002C000013400E00024084B9B681A699442F2D3054B5B78022B03D1034883685B68984738BD00BFD880FF1FF080FF1F30B583B0012000F03BF9164B9B78022B25D1144B4A
:400300001B88ADF80430ADF800305BB2002B02DC4FF0000300E05B000E4A9168137000235360022353704D698B6873B13DB90CE0996855F8240000F019FF013400E00024E5
:40034000044B9B681A699442F2D303B030BD00BFCC80FF1FD880FF1F38B5022000F006F9184B5B78022B08D1164B19785B68B3F57A7F04D34FF0000101E04FF00001124BA9
:400380009A68197000215960022159705569936873B13DB90CE0996855F8240000F0E6FE013400E00024084B9B681A699442F2D3054B5B78022B03D1034883685B6898473E
:4003C00038BD00BFD880FF1FE480FF1F30B583B0002000F0CBF8214B9B681A68002A3BD01E4A128802A820F8082D1B689847E8B9BDF80010ADF80410184B9A6819800021A7
:40040000596002219970556993682BB33DB923E0996855F8240000F0A9FE013400E000240E4B9B681A699442F2D315E00B4B03229A709B68DD69DB6873B13DB90CE0D9683E
:4004400055F8240000F092FE013400E00024034B9B689A699442F2D303B030BDCC80FF1F10B5084C22680221074800F08BF823680133236013F5807F01D90022226001F019
:400480000BF910BDD482FF1F4C20000008B5012000F0B6F801F000F908BD00BF00B583B000230193032000F0E1FE01A9042000F03DFE019800F00CFE019A0221014800F08D
:4004C00079F8EFE76020000008B501F0ABF901F0BDF9002008BD00BF70B506460D46002001F0B8F9002001F0C1F984B2012001F0BDF980B2D4F5006400D50F3444F3071480
:400500003470D0F5006000D50F3040F307102870002070BD08B501F0E9FA002001F0C6FA002008BD08B501F0C1FA002008BD00BF08B5002100F044FB002008BD08B500F0BC
:400540005FFB044B1B780F2B02D10022014B1A70002008BDD882FF1F034B1B78082B01D10120704700207047C080FF1F012303FA00F0034A1378184310700020704700BF90
:40058000D882FF1FF8B506460F46154600240DE006EBC4039A88B5FBF2F302FB13531BB956F83430002098470134A4B2BC42EFD30020F8BDF8B505460E461746002409E0DC
:4005C00005EBC4035868384202D055F8343098470134A4B2B442F3D30020F8BD08B5007801F092FA002008BD08B50078FFF79AFF002008BD08B5411CFFF76EFF002008BDEA
:40060000104B5B68034413F1011F01D80D4A53600C4B1B69034413F1011F01D8094A1361084BDB69034413F1011F01D8054AD361044B9B6A184410F1011F01D8014B98621A
:40064000704700BFCC80FF1FFEE700BFF0B40022174611E050F82760F3B226F0FF0608E001EB420511F812406D78A5550132013BDBB2002BF4D10137222FEBD9F0BC704762
:4006800008B50A46002101F0A6FC08BD38B50E22284B1A801823284A13701925023215800232137040F2CF7102321180023213700222224B1A7008224FF040231A70032119
:4006C00003F5007319701E4B1B78DBB21D490B701D4B1A8041F25122023B1A8000240CE01A4B1B7803F0010343EA440404F003044FF4F07001F088FA013D0DB1032CEFD1AD
:4007000015B90320FFF7A0FF114B4FF480721A8007221A7000220F490A704820023108701A700222033B1A700B4A137843F00703137038BD804000408240004000430040BE
:4007400008010049A146004022420040254200400440004006400040A2430040F8B5164B1B78DBB2154E3478E4B2154F3D78EDB203F00701134A11701B090132137044F014
:400780000303337045F003033B7003220E4B1A7040230E4A13700232137030220C4B1A70202203331A700A2000F000FA3D7034704422084B1A70F8BDCF010049F846004084
:4007C000F94600406E5800400D51004001590040205B00407658004008B501F0F1FB08BD38B572B63A4A137843F00403137000240CE0384D630019194A0011462A440846AC
:4008000091882858FFF73CFF0134E4B2072CF0D900240BE02F48A20011194B0003441A8F596B186BFFF7D8FF0134E4B2012CF1D929494FF09040FFF709FF04212748FFF7BB
:400840001FFF042226492748FFF7C6FF264A137843F0020313701032137843F002031370224C237843F040032370A2F58632513A137843F01003137008221D491D48FFF732
:40088000ABFF0A221C491D48FFF7A6FF08221C491C48FFF7A1FF08221B491C48FFF79CFF1B4A137843F0080313701A4D61232B70FFF7ECFE81232B700122174B1A70FFF796
:4008C0004DFF0E2221461548FFF786FF38BD00BFE84600401C2100008C00004800760040D80700480876004003500140A0430040B407004802510040BC070048C0510040C6
:40090000C807004812510040D007004822510040224300400048004004000840B043004008B501F021FB03680C2B00D1FEE7FEE708B5104E104D16E029686B68AC68002270
:4009400004E051F8040B43F8040B0432A242F8D1E868002203E0002143F8041B04328242F9D11035013E002EE6D101F003FBFFF7DBFBFEE701000000DC23000008B5114A59
:40098000114B1A60114A136843F40073136000230AE0032B03D80E4A52F8231000E00D490D4A42F8231001332F2BF2D90B4B1A780B4B1A70084A0B4B1A60FFF711FF00F050
:4009C00013F808BD0004FA050CED00E014ED00E000000000210900000080FF1FBC760040C080FF1F08ED00E00B4A7F2313708021517007E0DA0002F1804202F5F042013B46
:400A0000DBB21370002BF5D1DB0003F1804303F5F04300221A707047FC80FF1F172815D831B103010A495A5C42F020025A5405E0030107495A5C02F0DF025A540001044A1F
:400A4000835C43F00103835400207047012070471070004017280CD80001074BC1180A7942F004020A71C25C42F00102C254002070470120704700BF1070004017280BD8DC
:400A80000001064A835C03F0F103490001F00E011943815400207047012070471070004041F6FF73994201D14FF4005141F6FF739A4201D14FF40052172808D8C00000F190
:400AC000804000F5EC408180C280002070470120704700BF172805D8034B03EB0010417200207047012070471070004017281BD810B4C00000F1804404F5EC44D201D2B2EF
:400B000001F07F01114321709DF804201201D2B203F00F03134363709DF8083003F00F03A3700020E07001E00120704710BC704710B501F071F80A4B5B78182B0BD9084A90
:400B40001478013B5370E30003F1804303F5F0431B78137000E0FF2401F062F8204610BDFC80FF1F10F0800F0CD111F4704F0BD1C00000F1804000F5F04001808270C370AC
:400B800000207047012070470120704710F0800F08D1C00000F1804000F5F0408180C280002070470120704701BE704708B5034B1B7A00FB03F001F027F808BD0481FF1F42
:400BC0000E4B1A7802F0FC0200F00300104318701A7842F080021A701A7802F07F021A7049011A7801F0600102F09F02114319701A7842F010021A70704700BF8343004073
:400C00000122014B1A7070478443004038B504460D46072902D90020FFF7C6FF1F2C02D90020FFF7C1FF04F01F0000F1604000F564406D01EDB2057038BD00BF38B5EFF34F
:400C4000108572B604284ED82D4B53F82030002B4BD02B4A013B42F820302A4B53F82030032B07D10222274B43F820200022264B43F8202000F03EFC244B1B68002B36D14E
:400C8000234B1C6800F014FCB0F1FF3F31D0214B53F82020204B1B689A422CD9B4F1FF3F03D00221174A42F824101C4A52F820201343194A13600022124B43F8202000F0EE
:400CC000B3FB174B53F820304BB10024144B43F8204040F0004000F0F7FF20460CE000F0F3FF002008E0032006E0042004E0002002E0002000E0002085F3108838BD00BFA6
:400D00005C81FF1F0882FF1F0483FF1F4483FF1FF081FF1FE82200002083FF1FC8220000DC82FF1FF8B5EFF3108472B628BB00EB4005AB00184DEB5803EB4306B500174EC4
:400D400075598D421BD34AB103EB43039E00134B1E44B3689A4214D3954214D3A9B103010F4DEB589BB90301EE180127EF507260013900F087F800200AE0032008E0082045
:400D800006E0082004E0082002E0082000E0072084F31088F8BD00BF80220000942200007483FF1F18B108B5C368984708BD704708B508B1406800E00020042816D80C4B7D
:400DC00053F8203093B10A4A013B42F82030094B53F82030032B07D10222064B43F820200022054B43F8202000F084FB08BD00BF5C81FF1F0882FF1F0483FF1F18B10346DB
:400E000040689B6801E00023184604281DD80F4A52F82020CAB10E4A52F82010032914D010B50C4C54F820201A4344F820200A4A52F82020134207D0012905D10222044B45
:400E400043F8202000F056FB10BD7047A02200000882FF1F0483FF1FF082FF1F80B108B50378012B06D013B1032B06D008BDFFF79FFF08BDFFF7C2FF08BDFFF793FF08BD79
:400E8000704700BF30B400EB40029300214AD258214B03EBC2035C68B4F1FF3F04D11E4B03EBC20250602DE01C4B03EB04139B6899420AD2184D05EBC2025060174A02EBD3
:400EC00004125B1A93601DE01C46144B03EB04139A68891ADB68B3F1FF3F05D00F4A02EB031292689142EFD2B3F1FF3F05D00B4A02EB031295686D1A9560084A02EB04144B
:400F0000E0601C46054B03EB00108160C46030BC704700BF802200001881FF1F7483FF1F38B5394A02EBC0035C6852F83030013342F8303000EB40018A0034498A589342A6
:400F400003D90022304B43F83020B4F1FF3F59D02F4B03EB04139B68002B4ED1214600E019462B4B03EB0113DB68B3F1FF3F05D0274A02EB03129268002AF1D0244A02EBCA
:400F800001114FF0FF32CA601F4A02EBC0004360B3F1FF3F07D01E4A02EB03139A68013A9A6000E02C4604EB44029300194A13441B7A7BB904EB44029300164A13445A6893
:400FC000154B53F8223003EB83039A0013481044FFF744FF0E4B03EB0413DD68596821B101392046FFF74EFF03E024010022084B1A51B5F1FF3FD5D138BD054A02EB04142A
:40100000013BA36038BD00BF1881FF1F942200007483FF1F80220000902200006C22000038B5EFF3108572B6002838D1FFF778FF204B1B68002B34D11F4B1C6800F038FA01
:40104000B0F1FF3F2FD01D4B53F820201C4B1B689A422AD9B4F1FF3F03D00221194A42F82410194A52F820201343154A13600022144B43F8202000F0D7F9144B53F8203061
:401080004BB10024114B43F8204040F0004000F01BFE20460AE000F017FE002006E0032004E0002002E0002000E0002085F3108838BD00BF4483FF1FF081FF1FE8220000DA
:4010C0002083FF1F0882FF1FC8220000DC82FF1FEFF3108372B6114A1168114A126882B9B1F1FF3F0FD00F4A52F821206AB110B40D4C54F8212022EA000044F821000020AF
:4011000007E0022002E0022000E0012083F31088704783F3108810BC704700BFF081FF1F4483FF1FA02200000483FF1F04280FD80B4B53F820306BB10A4B53F82030032B73
:401140000AD059B1084B53F820300B60002070470320704701207047072070470E207047A02200000882FF1F0483FF1F38B5EFF3108472B6042853D8324B53F82030002BB2
:4011800050D0314B53F82030032B4DD02F4D55F820200A4345F820202D4A52F82020114244D0012B44D10222274B43F8202000F0A1F9284B1B68002B3CD1274B1D6800F081
:4011C00077F9B0F1FF3F37D0244B53F82020244B1B689A4232D9B5F1FF3F03D002211A4A42F825101F4A52F8202013431C4A13600022154B43F8202000F016F91A4B53F84B
:4012000020304BB10025184B43F8205040F0004000F05AFD284612E000F056FD00200EE003200CE001200AE0072008E0002006E0002004E0002002E0002000E0002084F3FB
:40124000108838BDA02200000882FF1F0483FF1FF082FF1F4483FF1FF081FF1FE82200002083FF1FC8220000DC82FF1F38B5EFF3108472B6364B1D68364B1B68002B5DD1AF
:40128000B5F1FF3F5CD0344B53F82530002B59D0324B53F82530034256D1314B43F825000122304B43F825202F4B53F825002F490B6823EA00030B602D4B43F825202D4B68
:4012C00053F82520224B1A6000F0F2F8B0F1FF3F06D0294B53F82020244B1B689A420DD81B4B1868B0F1FF3F03D000221D4B43F8202040F0004000F0E7FC1AE00021194AD8
:4013000042F82010184A52F820201343174A136000F08AF8164B53F8203043B10022144B43F8202040F0004000F0CEFC01E000F0CBFC00200A4B43F8250006E0022004E04C
:40134000022002E0012000E0002084F3108838BDF081FF1F4483FF1FA02200000483FF1FF082FF1F0882FF1FC82200002083FF1FDC82FF1FF481FF1FE822000008B500F0C0
:4013800053F8084B53F8203043B10022054B43F8202040F00040044B186008BD024B186008BD00BFDC82FF1F4883FF1F10B500F07FF8124B1B68B0F1FF3F1AD0104A52F8F0
:4013C0002010104A1268914213D9B3F1FF3F03D002240D4941F8234000210B4B43F820100A4B53F820301A43064B1A60FFF7C6FF10BD43F00043064A136010BDF081FF1F46
:40140000E82200002083FF1F0882FF1FC82200004883FF1F034B1B6813B10022014B1A60704700BF3883FF1FF0B4184B19880B0A174AD356B3F1FF3F01D1535601E00833DA
:401440005BB2144D55F82320134850F82200134E56F8224045F82340114D2F6846F822702A60B4F1FF3F09D10E4A42F82340012202FA03F321EA0301044B19800A4B196815
:401480000A4A42F820101860F0BC70471C83FF1F60210000B081FF1F4C83FF1F3481FF1F1883FF1F7081FF1FF081FF1FF481FF1F0C4B1A88130A0C49CB56B3F1FF3F01D11C
:4014C0008B5601E008335BB2B3F1FF3F06D0074A52F82320064B53F8220070474FF0FF30704700BF1C83FF1F60210000B081FF1F4C83FF1F30B4144B53F82020134C2368C1
:40150000134951F823502560124C44F823004FF0FF3441F82340104951F82210A1420AD10E4951F820400E480188214301800D4941F8223002E0064840F82130064941F8CB
:40154000223030BC704700BF4881FF1F1883FF1F3481FF1F4C83FF1F7081FF1FE82200001C83FF1FB081FF1F0022014B1A60FEE74083FF1F08B5FFF7F7FF00BF08B572B637
:40158000FFF7F8FF10B150F8210070474FF0FF30704700BF0122014B1A60FEE74083FF1F70B50546124B53F8306000241CE0104B03EBC50321465868FFF7E4FF0D4A52F850
:4015C0002030013B42F820300B4B53F82030032B07D10222084B43F820200022074B43F82020FFF787FF0134B442E0D370BD00BF602200005C81FF1F0882FF1F0483FF1FED
:4016000018B908B5FFF7CCFF08BD7047194B1A4ADA621A4A9A631A4ADA63EFF3108272B6184B1B6813BB10B5044600F053F8164B1C600122134B1A602046FFF7E1FFFFF735
:4016400037FFB0F1FF3F0ED0104B53F82030104A11680B43136000220E4B43F82020FFF7E3FE00F031FB62B6FFF794FF82F31088072070470080FF1F891C00004D1C0000CC
:40168000910000004083FF1F3C8FFF1FC82200002083FF1F0882FF1F08B5EFF3108272B6094B1968094B1B6833B94FF0FF30084B43F82100002000E0022010B9084600F045
:4016C0005CFB82F3108808BDF081FF1F4483FF1F2081FF1F38B50D4B1D68EFF3108472B600F0A2FA0A4A136843F07F431360094B6B6401210846FFF789FA074A136843F058
:401700000203136084F3108838BD00BF08ED00E020ED00E0E101000000E100E010B541F6FF734FF480420121022000F061F9084C207041F6FF731A460121042000F076F976
:401740006070044800F090F9002000F093F910BD2883FF1F8918000070B52C4C2078FFF779F96078FFF776F9294B1B78FF2B03D1FFF7DEF9264B1870254D287806230246D9
:401780000421FFF7EFF9214E341DA4B2224645F6A0312878FFF7FAF929783078FFF79AF96B78FF2B02D1FFF7C3F96870184D6878072302460421FFF7D5F9164A92B221462C
:4017C0006878FFF7E3F9114C69786078FFF782F901212078FFF722F901216078FFF71EF900F01AFA0C4A137843F02003137000F017FA0A4B1A7842F001021A701A7842F0B5
:4018000002021A700122064B1A6070BD2883FF1F4C82FF1F4091FF1F976400407864004080E200E008B5074B9B6823B9FFF776FF0122044B9A6000F0C5F8FFF78DFF024B81
:401840001B7808BD2883FF1F6865004008B500F0C7F808BD044B1B7803F0FF020BB90028F8D01046704700BF68650040C0F10100034B33F91030034A1088181A00B27047BA
:401880004091FF1F4691FF1F704700BF08B50A280FD00C2802D0082806D102E04FF4805209E04FF4807206E00020FFF77DF9002201E04FF480620021094B198042F210737F
:4018C00003FB02F303F6C413064A82FB0302DB17C3EBE223044A1360044B198008BD00BF4491FF1FAD8BDB684C91FF1F4691FF1F10B500F091F90446184A137843F0010376
:4019000013701032137843F00103137002F5AA520832137843F0030313701822104B1A70013B1A7842F040021A701A7802F0FC021A70C822053B1A700222A3F597530C3B91
:401940001A70084A137843F0080313700A20FFF72DF9204600F064F910BD00BFAB43004006590040275B004010B504460A280DD00C2802D0082804D101E0C22207E04222F2
:4019800005E00020FFF710F9C22200E08222034B1A702046FFF77AFF10BD00BF0259004008B5064A137843F0060313700C20FFF7DBFF0022024B1A8008BD00BF015900406D
:4019C0004891FF1F08B5054B1B7823B9FFF7E8FF0122024B1A70FFF78BFF08BD3483FF1F024A137843F001031370704700590040F0B583B016461F460B4C012525700023D4
:401A0000019300932B460A4601462846FFF76EF83A4631462078FFF743F802212078FFF72DF8207803B0F0BD4E82FF1FF0B583B016461F460B4D00242C70019400942346EE
:401A40000A4601462046FFF751F83A4631462878FFF726F802212878FFF710F8287803B0F0BD00BF4F82FF1F014B1B681864704708ED00E04001C0B2014B1870704700BF3C
:401A800000E400E0024A137843F08003137070477D640040014B1870704700BF0D640040014B1870704700BF4D640040014B1870704700BF2D64004008B50B4A137803F099
:401AC000C00343F0090313702032137843F001031370FF20FFF7DEFFFF20FFF7E1FF7F20FFF7E4FF08BD00BF7D64004008B5054B1B7823B9FFF7E0FF0122024B1A70FFF785
:401B0000C1FF08BD3583FF1F044A137803F0BF03800100F04000184310707047005100407222084B1A702022013B1A700622A3F5AF731A70472210331A70002254331A709A
:401B4000704700BF8A65004010B500F065F804460A4A137843F020031370013A137843F010031370FA3A137843F01003137000F033F8204600F054F810BD00BF9A6500400D
:401B800008B5054B1B7823B9FFF7CAFF0122024B1A70FFF7D9FF08BD3683FF1F034B1B7813F0040FFAD1024B187070476F6400404C64004038B5074B1B782BB938BDFFF794
:401BC000EDFF0134A4B201E005460024285D0028F5D138BD3683FF1F054A137843F0020313701032137843F002031370704700BFA2430040024B1878C0F38000704700BFA1
:401C000001510040000000000230800803D000BF01380046FCD17047EFF3108072B6704780F31088704700BF18484FF47F0102680A43026016486FF07F4102680A40026022
:401C4000704714484FF080510160704772B611484FF000610160FFF7A9FB0F48006800F0C3F858B10C4800684FF080730B4A0C490FB40FB46FF00600004700BF6FF00600AC
:401C800062B6004762B600DF08B0704720ED00E01CED00E004ED00E04883FF1FC91C0000851C0000EFF30880054908600548006880F3088870470248006880F3088870474E
:401CC0005082FF1F3C82FF1F411C8900154A11440968154A136899421AD0F0B444464D4656465F46F0B400B5104C9B002344EFF308851D60116089002144096881F30888F5
:401D000002BC8E46F0BCA046A946B246BB46F0BC002806DB00B500F05BF802BC8E46FFF7D3BF7047242300002483FF1F4082FF1FF0B444464D4656465F46F0B400B5EFF3F0
:401D4000038308B48000174901440968164A0244EFF30883136088471448804704BC4FF08070024382F3038801BC8646F0BCA046A946B246BB46F0BC704780000A49014461
:401D80000A6882F3088804BC4FF08070024382F3038808BC9E46F0BCA046A946B246BB46F0BC7047FC2200006083FF1FB11D000008B572B6014B1868FFF7DFFFF081FF1FF2
:401DC00008B5024B1868FFF7B3FF08BDF081FF1F08B562B6FFF7F4FF72B600F041F8014B186808BD4883FF1F00280BDA20F000400130054B53F82000044B1B68181A18BFB0
:401E00000120704701207047242300002483FF1F054B53F82020054B53F820309A4201D101207047002070475C81FF1FB422000008B5FFF7F9FA084B53F8203043B1002248
:401E4000054B43F8202040F00040044B186008BD024B186008BD00BFDC82FF1F4883FF1F38B5364B1C680022354B1A60354A52F82430013342F82430334B53F8245020465D
:401E8000FFF7C6FF012801D0A54204D103222F4B43F8242003E002222C4B43F824202C4B53F824102B4A136823EA010313602A4B53F82440214B1C60B5F1FF3F0FD0234BEF
:401EC00053F82530032B07D10222204B43F825200022224B43F825202846FFF70BFBFFF7E7FAB0F1FF3F0BD1B4F1FF3F03D00022164B43F8242044F00044194B1C6038BD1D
:401F0000184B53F82020134B1B689A4208D800220E4B43F8242044F00044114B1C6038BD00210A4A42F82010094A52F820201343084A1360FFF77CFF38BD00BFF081FF1F4C
:401F40003883FF1F5C81FF1F2081FF1F0882FF1FC82200002083FF1FF481FF1F0483FF1F4883FF1FE8220000014B1868704700BFB482FF1F0E4B70B51E460E4C0025E41A5B
:401F8000A410A54204D056F8253098470135F8E700F012FA084B094C1E46E41AA4100025A54204D056F8253098470135F8E770BDC4230000C4230000C4230000CC23000019
:401FC00010B5431E0A44914204D011F8014B03F8014FF8E710BD03460244934202D003F8011BFAE7704700000000000053797374656D2077617320726565626F6F746564CC
:402000002061667465722061207761746368646F672072657365740053797374656D2077617320726565626F6F746564206166746572206120706F776572206F6E2072657C
:402040007365742028504F5229000000CD0300000A000000590300006400000002000000ED0200000100000079020000020000000200000000000000DD05000000000000C5
:402080000000000000000000000000000000000000000000000000000000000000000000E90500000000000000000000000000000000000000000000000000000000000032
:4020C000000000000000000000000000020000000000000001000000EC2000000000000000000000000000000000000004000000F5050000000000000100000000000000D2
:4021000001000000182100000000000000000000000000000000000004000000305100404000F05100401000000001400010001401400006801A0140800100400140000A3C
:40214000004C01400002005001402000605200402C0700480600001A0140340700488000FF00010102020202030303030303030304040404040404040404040404040404ED
:4021800005050505050505050505050505050505050505050505050505050505050505050606060606060606060606060606060606060606060606060606060606060606BF
:4021C000060606060606060606060606060606060606060606060606060606060606060607070707070707070707070707070707070707070707070707070707070707073F
:4022000007070707070707070707070707070707070707070707070707070707070707070707070707070707070707070707070707070707070707070707070707070707DE
:402240000707070707070707070707070707070707070707070707070707070707070707010000006822000000000000030000000000000000000000AD010000FFFFFFFF46
:4022800000000000000000000000000000000000000000001027000000000000010000000000000000000000000000000000000001000000010000000100000001000000E2
:4022C0000100000001000000800000000100000020000000020000001000000001000000020000000400000001000000010000002000000002000000100000005501000098
:40230000C5010000610400008D0400009D040000C11D0000C11D0000C11D0000C11D0000C11D0000000000000000000001000000000000000000000002000000616C726D3B
:402340005F63616C6C6261636B00000065765F6A6F79737469636B5F6F6E44617461000065765F73706565645F6F6E446174610065765F316D73000074736B5F696E6974C0
:402380000000000074736B5F6261636B67726F756E64000074736B5F696F000074736B5F73797374656D000074736B5F636F6E74726F6C0043000000F8B500BFF8BC08BC94
:4023C0009E4670474D0000007D090000F8B500BFF8BC08BC9E46704729000000F0230000C880FF1FF0010000980E000000000000000000000000000000000000F0200000A7
:402400000000000000000000C420000000000000000000009C2000000000000000000000742000007F800000030000000000E02EC05D00001800000000366E013C2300001F
:4024400000000000FFFFFFFFFFFFFFFFFFFFFFFFFFFFFFFFFFFFFFFFFFFFFFFF01000000020000000300000004000000FFFFFFFF0000000000000000050000000100000068
:40248000040000000100000001000000010000000100000001000000FFFFFFFFFFFFFFFFFFFFFFFFFFFFFFFFFFFFFFFFFFFFFFFFFFFFFFFFFFFFFFFFFFFFFFFFFFFFFFFF3B
:4024C000FFFFFFFFFFFFFFFFFFFFFFFFFFFFFFFFFFFFFFFFFFFFFFFFFFFFFFFFFFFFFFFFFFFFFFFFFFFFFFFFFFFFFFFFFFFFFFFFFFFFFFFFFFFFFFFFFFFFFFFFFFFFFFFF1C
:40250000FFFFFFFFFFFFFFFFFFFFFFFFFFFFFFFFFFFFFFFFFFFFFFFFFFFFFFFFFFFFFFFFFFFFFFFFFFFFFFFFFFFFFFFFFFFFFFFF03000000030000000300000003000000BF
:40254000030000004C23000060230000702300007823000084230000942300009C230000A82300004091FF1F00000000148FFF1F2C8BFF1FFFFFFFFF0000000000000000CF
:4025800000000000000000000000000000000000000000000000000000000000B4230000000000000000000000000000000000000000000000000000000000000000000044
:4025C000000000000000000000000000000000000000000000000000000000005482FF1F0000000000000000000000000000000000000000000000000000000000000000E7
:40260000000000000000000000000000000000000000000000000000000000000000000000000000000000000000000000000000000000000000000000000000000000009A
:40264000000000000000000000000000000000000000000000000000000000000000000000000000000000000000000000000000000000000000000000000000000000005A
:40268000000000000000000000000000000000000000000000000000000000000000000000000000000000000000000000000000000000000000000000000000000000001A
:4026C00000000000000000000000000000000000000000000000000000000000000000000000000000000000000000000000000000000000000000000000000000000000DA
:020000040003F7
:0200000480007A
:4000000002520040015B0040026400400265004002030140030501402106014040070140230801403D0901402C0A0140350B0140510C0140380D0140130E0140230F0140E0
:400040000215014028160140411701402718014048190140031A0140431B01400940014009410140044201400643014002450140064601400647014003480140044C01400B
:40008000074D0140095001400251014001021010278487018F0F89388A728C40E8108B109440E220040108010B010C010D011001150116011D012501260129012C012D0134
:4000C00034013501580459045F018B019302A201AE02B101B201B402B502D602D739D804D904DB0EDF01004003080440051409420A240D020E1010201101120113041748B3
:4001000019141A041B081F10204022102308270429102A032B022E042F0A30023104321033403748384039103B043C403E105B20620868026915720A7808821083208C0845
:400140008D048F0494409720A702B702C0E3C23FC4ADCA7CCC5FCE3ED604D802DE02E203E404E610EE0401040401090415012703300133023504370139203E013F10520329
:4001800053025804590C5B045F018601880494049804A202A804AC01B203B404BE10D608D804D904DB04DC09DD90DF0100100108060407120A080B200F0C1180131114489E
:4001C000161119181E4025402644270828402B142D08360438403A153E1158085A805B0463016D406E107D408048825085408C808D408F1292819320970498409A019B10E2
:400200009C889E14A501B201B601B708C0E6C246C4FBCA47CC40CEAFD608D808DE10E014E240EC40EE04580459045F0189028A088F019103920C940C96139C209E03A011E3
:40024000A20EAC11AD03AE06B030B103B20FB802B902BA28BF01C001C704C9FFCA07CBFFCC40CD20CEF0CF05D008D804D904DA04DC01DD01DF01E040E1A8E240E3200128C6
:400280000210060808900A020B040D800E50104011121205154017021E501F102740284829202A042D5A2F02301032013480370A3A113D823E103F044740540855C056088C
:4002C00088088902928096509B129C889D029E149F08A302A408A541B410C046C2B3C49BCAF7CCD5CEF5D01002080320051409DC0B220D090FD01003110C120C1371140A0B
:4003000016041B031E052003220429102B402C032D102E042FAC300F331F37E03A023B804041410545EB47C0482349FF4AFF4BFF4EF04F44500C580459045A045C115D010A
:400340005F0166C06A406B02860192029601B201B402C020C103C610C702C818C9FFCAFFCBFFCDA0CF04D018D280D804D904DA04DB04DC02DD22DF01E040E2C0E440E5408F
:40038000E6C0E8C0EAC0ECC0EEC00004068009400A010B600D020E111602170218141D021F0224022680271229022B042C082F023005371239023A143ED13F0440844105B0
:4003C00045424C014F0651045310560273408F049280961198059C889E169F08A501A680A707B212B640C014C2BCC490CA35CCA3CEF7D096D210E040E810580459045F0123
:4004000083018B019C019D01A301AD01B101B401BE10BF01D401D804D904DB04DD10DF0102140604088109050C050E020F0A1024148816B81E08244028A02A042B042C2066
:400440002E2A2F0230053425368037083A183D083E913F085C405E2AC046C2FDC476CAF7CCF3CEF6D6F0B302B4400601070130013101580459045F01810482108508860830
:40048000880489208B108D108F20900891809340970499409A019B809E029F01A102A204A501A802AB02AC01AF08B21FB7FFB808BE04BF40D804D904DF010042010402089E
:4004C0000310051006800710086009020A100D0A0F08101411811202141017401A101B041D021F02200226022740286429102A0A2B022C102F023012310C321833403514E5
:400500003740384039153A803C403E188340904091159220961099149A0A9F40A002A542A702A820AA10AE08B204C07FC27FC4AFCA5FCC7FCE7FE441E801EA0854015804AC
:4005400059045B0C5F0181018201838085198744895F8F0693019547971899089A019D10A320A720A918AD19AF42B180B31FB401B540B720B920BB08BE10BF40D418D804AA
:40058000D904DB04DC10DD10DF0101020210032405200614088009010B040C100E010F08101212041480160817041804210422012315280229042A202B802D202E012F20B0
:4005C00030A032053704384239083B203D023F2859015E80600463017D408101820889018B108C1291409320941096089710988099109A149B04A240A310A501A704AA0462
:40060000AF08B210C06EC2CBC477CAEFCC4FCEEFD611D80CDE10E440EC20D804D904DF0100540101050806140A400B240E010F0810A8114014A016081704181419811A083E
:400640001B802041221823042D202E08321834A03508380239943E013F08404549864B205910699470A8722082488C018D4091019201932094529608988099309A1C9B042D
:400680009D079E20A304A4A0A780B002B201B704C06FC2CEC47FCA60CC76CECFD00DD20CD604E840EC8013021680302035803B023E80C430CC30CE600180500858109702CF
:4006C0009D80A420B702C040D4A0881097029C10A42884208C08A428AB01E240EE205F02D6011B042608B702C608C801E80846018002AB04B208D004EE0124048C04C82009
:400700008E019E01A002E402128074028E80A002C408DE04E202000701010A010C030D010E0710031A011C03000F100A80800000400000001C0AE354F33F0C000F3FF000E4
:400740000001F30082000000FF240052C31000A80000000008000000040000000C00000041000000C0012C060F381CC000002800000000402406050001EC000003FFFFFF20
:4007800062A0F0410C000000000002110404040411110001000000000000400200103010001010120000000000000000000000000000000004404000000303008000408026
:4007C0008000800000000000000B0B0000000000001010001000000000010000000000000000000000000000000000000000000000000000000000000000000000000000B2
:4008000000000000000000000000000000000000000000000000000000000000000000000000000000000000000000000000000000000000000000000000000000000000B8
:400840000000000000000000000000000000000000000000000000000000000000000000000000000000000000000000000000000000000000000000000000000000000078
:400880000000000000000000000000000000000000000000000000000000000000000000000000000000000000000000000000000000000000000000000000000000000038
:4008C00000000000000000000000000000000000000000000000000000000000000000000000000000000000000000000000000000000000000000000000000000000000F8
:0200000490006A
:0400000000004005B7
:0200000490105A
:04000000BC90ACAF55
:0200000490303A
:02000000741872
:0200000490402A
:4000000000000000000000000000000000000000000000000000000000000000000000000000000000000000000000000000000000000000000000000000000000000000C0
:400040000000000000000000000000000000000000000000000000000000000000000000000000000000000000000000000000000000000000000000000000000000000080
:400080000000000000000000000000000000000000000000000000000000000000000000000000000000000000000000000000000000000000000000000000000000000040
:4000C0000000000000000000000000000000000000000000000000000000000000000000000000000000000000000000000000000000000000000000000000000000000000
:0200000490501A
:0C00000000012E16106900012E258481DD
:00000001FF